:020000040800F2
:100000000807002059100008290E00082B0E0008D0
:100010002F0E0008330E0008370E00080000000005
:100020000000000000000000000000003B0E00087F
:100030003D0E0008000000003F0E0008410E0008C1
:100040007310000873100008731000087310000884
:100050007310000873100008731000087310000874
:100060007310000873100008731000087310000864
:100070007310000873100008731000087310000854
:100080007310000873100008731000087310000844
:100090007310000873100008731000087310000834
:1000A0007310000873100008731000087310000824
:1000B000BD0B0008731000087310000873100008CF
:1000C0007310000873100008731000087310000804
:1000D00073100008DB0D0008F50D00087310000810
:1000E00073100008731000087310000873100008E4
:1000F00073100008731000087310000873100008D4
:1001000073100008731000087310000873100008C3
:1001100073100008731000087310000873100008B3
:1001200073100008731000087310000873100008A3
:100130007310000873100008731000087310000893
:100140007310000873100008731000087310000883
:100150007310000873100008731000087310000873
:100160007310000873100008731000087310000863
:100170007310000873100008731000087310000853
:10018000731000087310000800F002F800F03CF84B
:100190000AA090E8000C82448344AAF10107DA45E2
:1001A00001D100F031F8AFF2090EBAE80F0013F0F8
:1001B000010F18BFFB1A43F001031847B4360000C3
:1001C000D4360000103A24BF78C878C1FAD8520754
:1001D00024BF30C830C144BF04680C6070470000C1
:1001E0000023002400250026103A28BF78C1FBD840
:1001F000520728BF30C148BF0B6070471FB503F0DE
:1002000032FB1FBD10B510BD03F0F3FA1146FFF726
:10021000F5FF00F02BF803F011FB03B4FFF7F2FF3A
:1002200003BC03F019FB000010B54FF4A06000F010
:1002300033FF00F0EFFA00F0ABFD40F2D3110C20D9
:1002400000F05AFB00F026FB00F007FC00F085FAF6
:1002500000F0D2FC00F0BAF800F059F910BD10B56A
:100260004FF4FA7000F09AF8012010BD10B5FFF7B6
:10027000DBFF85E09921454803F0A8F900F0FFFA7B
:10028000434AD2E900320446E31A61EB020000213E
:10029000D3F10A02814173D200F0F1FA3C4A03C261
:1002A0003C48008881B2002000F01EFC39480088DC
:1002B00081B2012000F018FC3648008881B202208B
:1002C00000F012FC3348008881B2032000F00CFCDF
:1002D0003048008881B2042000F006FC2D480088D8
:1002E00081B2052000F000FC2A480068401C294922
:1002F000086008460068B0F5EA7F06DB0020086069
:1003000025480078401C244908702349087800EBF0
:10031000D0714910A0EB4101C1B10021084600F0A5
:100320000EFC0021012000F00AFC0021022000F058
:1003300006FC0021032000F002FC0021042000F054
:10034000FEFB0021052000F0FAFB17E00121002050
:1003500000F0F5FB0121084600F0F1FB012102202D
:1003600000F0EDFB0121032000F0E9FB0121042056
:1003700000F0E5FB0121052000F0E1FB00F060F951
:10038000FFF76DFF00287FF475AF10BD001001402E
:1003900000000020080000200C00002070B504467A
:1003A00000F06DFA084B0CCB0546AA1A61EB03006E
:1003B000E117A21A814105D200F061FA024A03C294
:1003C00000F030FC70BD00001000002000B59BB0B4
:1003D0000121A04801F0FAFD0121880201F050FE40
:1003E0000520199003208DF8680000208DF86B001F
:1003F00019A9994801F04CFB0F20199003208DF8A2
:10040000680000208DF86B0019A9944801F040FBAA
:100410004FF0806000909248019092480290002036
:10042000039006200490002005904FF48060069011
:1004300040000790800008904011099040020A9007
:1004400000200B9001200C9000200D900E9069462A
:10045000854801F065F90121834801F09BF90020EE
:10046000159018904FF4803016908010179015A8B2
:1004700000F0BCFE00200F9001208DF840008DF8A8
:10048000410000201190139006208DF850000FA914
:1004900073484C3800F07BFE07230122002170488E
:1004A0004C3800F0FAFE0723022211466C484C3803
:1004B00000F0F3FE072303220A2169484C3800F0BC
:1004C000ECFE072304220B2165484C3800F0E5FEC2
:1004D000072305220C2162484C3800F0DEFE07237A
:1004E00006220D215E484C3800F0D7FE01215C4801
:1004F0004C3800F07DFF012159484C3800F06DFF69
:10050000012157484C3800F088FE1BB000BD00B5F3
:100510009BB001214F48401D01F058FD0121080208
:1005200001F0AEFDEA20199003208DF8680000204C
:100530008DF86B0019A9484801F0AAFA0020009034
:100540004A48019047480C30029000200390052053
:100550000490002005904FF48060069040000790C2
:10056000800008904011099000020A9000200B9032
:1005700001200C9000200D900E9069463A481838E2
:1005800001F0CEF801213848183801F003F90020B5
:10059000159018904FF4803016908010179015A881
:1005A00000F024FE00200F9001208DF840008DF80F
:1005B000410000201190139005208DF850000FA9E4
:1005C0002A484C3800F0E3FD072301221146274852
:1005D0004C3800F062FE07230222032123484C38E6
:1005E00000F05BFE07230322052120484C3800F071
:1005F00054FE0723042206211C484C3800F04DFE0F
:1006000007230522194619484C3800F046FE0121FF
:1006100016484C3800F0ECFE012114484C3800F02C
:10062000DCFE012111484C3800F0F7FD1BB000BD85
:1006300010B50E484C3800F08CFE0A480C3010BD46
:1006400010B507484C3800F084FE064810BD054838
:100650007047000001004000000002400008024016
:100660004C22014074000020286402404C200140CC
:1006700000B587B00121022001F0A8FC0121880308
:1006800001F0EDFC4FF46040059002208DF8180059
:1006900000208DF81A0003208DF8190001208DF834
:1006A0001B0005A9574801F0F3F905220D21554813
:1006B00001F079FA05220E21524801F074FA052260
:1006C0000F21504801F06FFA0121880301F01CFD51
:1006D00000214FF4804001F017FD0020ADF800002C
:1006E0004FF48270ADF802004FF40060ADF80400E2
:1006F0000220ADF806000120ADF808004002ADF878
:100700000A001020ADF80C000020ADF80E00072004
:10071000ADF8100069463C4801F0F8FD01213A4867
:1007200001F0EEFE07B000BD1CB50121102001F064
:100730004DFC4FF40060009001208DF80400002073
:100740008DF8060002208DF8050001208DF80700C5
:1007500069462E4801F09CF91CBD10B5FFF7E4FF77
:10076000FFF786FF10BD70B504464FF400612748BF
:1007700001F00CFA00BF0221234801F08BFF002892
:10078000F9D02146204801F03CFF00BF01211E485E
:1007900001F080FF0028F9D01B4801F02FFF05462B
:1007A0004FF40061194801F0EFF9284670BD10B50B
:1007B0000020FFF7D8FF4FF40060FFF7D4FF144983
:1007C00008804FF48050FFF7CEFF114948804FF466
:1007D000C050FFF7C8FF0E4988804FF40050FFF764
:1007E000C2FF0B49C8804FF42050FFF7BCFF0849F7
:1007F00008810020FFF7B7FF05494881084610BD72
:1008000003487047000402400038004000100240D6
:10081000940000207FB5684601F007FB4FF47A7220
:100820000198B0FBF2F1481EB0F1807F00D31BE0CD
:10083000481E4FF0E022506150170F22002807DABF
:1008400013071D0E104B00F00F04241F1D5503E06D
:1008500013071C0E0D4B1C5400BF00204FF0E0226C
:1008600090610720106100BF7FBD094803684068A0
:100870005A1C40F1000006490A604860704704496C
:10088000086849687047000018ED00E000E400E0E7
:10089000180000201FB50121084601F0E0FB0121EE
:1008A000082001F0DCFB4FF47A7002904FF4527094
:1008B000ADF804000020ADF80600ADF80C0001A969
:1008C0004FF0804001F0C3FF01221146900702F073
:1008D0005FFC0121880702F043F81C208DF800001E
:1008E00003208DF801008DF8020001208DF803002F
:1008F000684600F0D6FB1FBD30B58BB004460D46F0
:100900000121022001F0ABFB0121042001F0A7FB33
:100910000121042001F05AFB0121082001F056FBBF
:1009200002220621AB4801F03EF902220721A94824
:1009300001F039F902220821A64801F034F9022217
:100940000921A44801F02FF902220C21A24801F04C
:100950002AF902220D21A04801F025F94FF4707008
:10096000099002208DF8280003208DF8290000202E
:100970008DF82A0001208DF82B0009A9954801F077
:1009800087F84FF44050099009A9934801F080F886
:100990000C20ADF818000020ADF81A0040F2D3107A
:1009A00007900020ADF8200006A98C4801F04FFF09
:1009B00006A98B4801F04BFF6020ADF80400012030
:1009C000ADF806000220ADF810000020039001A948
:1009D000824801F0D1FF0821804802F05AF901A9AC
:1009E0007E4802F002F808217C4802F05BF901A978
:1009F0007A4802F047F80821784802F060F901A926
:100A0000764802F0A5F80821744802F061F901A9BE
:100A1000734801F0B1FF0821714802F03AF901A9C9
:100A20006F4801F0E2FF08216D4802F03BF9012117
:100A30006A4801F077FF0121694801F073FFEA205D
:100A400066493C3108600121644801F089FF0121B9
:100A5000634801F085FF0BB030BD1CB501211020AB
:100A600001F0B4FA0121022001F0B0FA01210820BE
:100A700001F0ACFA40F20360009001208DF8040010
:100A800000208DF8060003208DF8050001208DF868
:100A900007006946534800F0FBFF4FF44F400090B9
:100AA00001208DF8040000208DF8060003208DF849
:100AB000050001208DF807006946474800F0E8FF6F
:100AC0004FF44070009001208DF8040000208DF854
:100AD000060003208DF8050001208DF80700694607
:100AE000414800F0D5FF1CBD70B504460D46062CEC
:100AF00022D2DFE804F003080D12171C29463848FB
:100B000002F093F819E02946344802F08EF814E018
:100B10002946324802F08BF80FE029462F4802F0B0
:100B200088F80AE029462E4802F081F805E02946B7
:100B30002A4802F080F800E000BF00BF70BD70B529
:100B400004460D4625B1012D13D0022D33D121E0ED
:100B5000264A32F81410264A52F8240001F014F8FC
:100B6000244A32F81410224A52F8240001F00EF8F8
:100B700022E01E4A32F814101D4A52F8240001F0F7
:100B800005F81C4A32F81410194A52F8240000F0F3
:100B9000FBFF11E0154A32F81410154A52F82400F0
:100BA00000F0F4FF134A32F81410114A52F82400EE
:100BB00000F0ECFF00E000BF00BF70BD10B50121E8
:100BC000880702F0FCFA012803D10121800702F016
:100BD00007FB10BD00080240000C0240000400406A
:100BE00000080040001002400004024038000020CD
:100BF00020000020440000201CB50121082001F045
:100C0000E5F98020009001208DF8040000208DF887
:100C100006008DF805008DF807006946044800F0CD
:100C200037FF1CBD10B58021014800F0B8FF10BD92
:100C3000000C024010B588B004460121102001F0DC
:100C40001FFA0121084601F0C1F907220921724863
:100C500000F0A9FF07220A216F4800F0A4FF02203C
:100C60008DF81C0000208DF81E0002208DF81D005C
:100C700001208DF81F004002069006A9664800F08A
:100C800007FF4FF48060069006A9634800F000FF5C
:100C900002940020ADF814000C20ADF812000020E2
:100CA000ADF81000ADF80E00ADF80C0002A95B48DD
:100CB00002F0D9FB25208DF8040001208DF80700F3
:100CC00000208DF8050002208DF8060001A800F034
:100CD000E8F9012240F22551504802F002FD0121BD
:100CE0004E4802F048FC08B010BD10B588B004466C
:100CF0000121480401F0B3F90121082001F066F94F
:100D000007221146464800F04EFF02208DF81C00D5
:100D100000208DF81E0003208DF81D0001208DF8A5
:100D20001F002020069006A93D4800F0B1FE40209B
:100D3000069006A93A4800F0ABFE02940020ADF8F8
:100D400014000C20ADF812000020ADF81000ADF832
:100D50000E00ADF80C0002A9324802F084FB01211C
:100D6000304802F008FC012240F225512D4802F0E3
:100D7000B8FC26208DF8040001208DF807008DF8BE
:100D800005008DF8060001A800F08BF908B010BD31
:100D900010B54FF4E130FFF74DFF10BD70B50446BC
:100DA0000D462946204602F011FC00BF4021204696
:100DB00002F0BCFC0128F9D170BD70B506460C46A6
:100DC000154604E014F8011B3046FFF7E7FF281E24
:100DD000A5F101018DB2F5D170BD10B540F22551DC
:100DE0000E4802F0B9FC20B10C4802F0F3FBC4B28B
:100DF00000BF10BD10B540F225510A4802F0ACFC0E
:100E000040B1084802F0E6FBC4B22146054802F0B2
:100E1000DDFB00BF10BD00000000024000100140DB
:100E2000000C024000440040704700BFFEE700BFD6
:100E3000FEE700BFFEE700BFFEE770477047704760
:100E400010B5FFF712FD10BD0CB500200190009009
:100E50007648006840F480307449086000BF7348E9
:100E6000006800F4003000900198401C0190009848
:100E700018B90198B0F5A04FF1D16C48006800F4A2
:100E8000003010B10120009001E000200090009897
:100E9000012846D165484030006840F080506349E1
:100EA000403108606248006840F440406049086092
:100EB0005E48083000685D490831086008460068EF
:100EC00040F4004008600846006840F4A050086004
:100ED0005848091F0860081F006840F08070091F0B
:100EE000086000BF5148006800F000700028F9D089
:100EF00040F20570504908604C480830006820F006
:100F000003004A49083108600846006840F00200C2
:100F1000086000BF45480830006800F00C00082851
:100F2000F8D10CBD10B54548006840F47000434945
:100F300008603E48006840F001003C49086000201D
:100F40003A4908310860394800683D490840374946
:100F500008603C48091D0860081F006820F48020D4
:100F6000091F0860002031490C310860FFF76CFF51
:100F70004FF0006031498039086010BD70B5002025
:100F80000022022300240221284D08352D6805F097
:100F90000C0020B1042806D0082834D107E02A4DDF
:100FA0002A4E356033E02A4D284E35602FE01F4D24
:100FB0002D1D2D68C5F380541C4D2D1D2D6805F089
:100FC0003F0154B1224DB5FBF1F5184E361D366880
:100FD000C6F3881605FB06F209E01B4DB5FBF1F5DB
:100FE000124E361D3668C6F3881605FB06F20F4D05
:100FF0002D1D2D68C5F301456D1C6B00B2FBF3F58B
:10100000124E356003E0104D104E356000BF00BF3A
:10101000064D08352D68C5F303150E4E705D0B4D5A
:101020002D68C540094E356070BD00000038024093
:101030000070004008544007003C024088ED00E08A
:10104000FFFFF6FE103000240024F40050000020C2
:1010500000127A00540000200948804709480047E0
:10106000FEE7FEE7FEE7FEE7FEE7FEE7FEE7FEE758
:10107000FEE7FEE704480549054A064B70470000B5
:10108000250F00088901000808010020080700203A
:10109000080300200803002032490143324A11604E
:1010A000704770B5002100230F22C4781CB32E4C6A
:1010B000246804F4E064C4F5E064C4F30721C1F1DA
:1010C0000404E3B20A4144789C40E1B284781440BD
:1010D00021430C07210E254C05786155047804F056
:1010E0001F050124AC4005786D11AD0005F1E02528
:1010F000C5F8004109E0047804F01F050124AC4064
:101100001B4D0678761145F8264070BD194A0A40F5
:101110000243154B1B1F1A60704739B1124A121D4A
:1011200012680243104B1B1D1A6006E00E4A121D86
:10113000126882430C4B1B1D1A607047042808D1AB
:101140004FF0E021096941F004014FF0E022116104
:1011500007E04FF0E021096921F004014FF0E0229F
:10116000116170470000FA050CED00E000E400E0BA
:1011700080E100E080FFFF1F10B50121080200F0B0
:10118000D4FF00214FF4807000F0CFFF10BD30B5C8
:101190000246002000235068F84C20400D790C686E
:1011A00044EA0524204350609068F54C2040D1E982
:1011B00003542C438D682C434D7944EA4504204365
:1011C0009060D06A20F470000C7D641EE4B223436A
:1011D00040EA0350D06230BD0021016001714171CD
:1011E0008160C16001610121017570470021E54AFC
:1011F0001168E54A1140D0E900231A4383681A4375
:10120000C3681A431143E14AC2F80413704700212E
:10121000016041608160C160704721B1826842F025
:101220000102826003E0826822F00102826070475E
:101230000A4600214168D64B19401143416070476E
:101240004162826270470A460021416821F01F0115
:1012500011434160704738B1CA49096841F400013F
:10126000CA4AC2F8041306E0C649096821F400011D
:10127000C64AC2F80413704738B1C249096841F43C
:101280008001C24AC2F8041306E0BE49096821F48D
:101290008001BE4AC2F804137047F0B504460D46FB
:1012A00000200021092D11DDE068A5F10A0606EBFA
:1012B0004607072606FA07F18843A5F10A0606EB5A
:1012C000460603FA06F10843E0600CE0206905EBEE
:1012D0004507072606FA07F1884305EB450603FA9A
:1012E00006F108432061072A0FDA606B561E06EBF1
:1012F00086071F2606FA07F18843561E06EB860668
:1013000005FA06F10843606322E00D2A0FDA206B2C
:10131000D61F06EB86071F2606FA07F18843D61F5D
:1013200006EB860605FA06F10843206310E0E06A42
:10133000A2F10D0606EB86071F2606FA07F1884381
:10134000A2F10D0606EB860605FA06F10843E062F7
:10135000F0BD816841F08041816070470146002006
:101360008A6802F080420AB1012000E00020704744
:1013700021B1826842F48062826003E0826822F4D4
:1013800080628260704721B1826842F0020282600E
:1013900003E0826822F002028260704710B50A46BC
:1013A00000210023416821F46041531E41EA43318A
:1013B000416010BD21B1426842F40062426003E026
:1013C000426822F40062426070470146C86C80B2F5
:1013D00070476C48001D0068704721B1826842F474
:1013E0008072826003E0826822F4807282607047BB
:1013F00021B1826842F40072826003E0826822F4C4
:1014000000728260704738B15E49096841F400514A
:101410005E4AC2F8041306E05A49096821F40051F3
:101420005A4AC2F804137047F0B504461546002026
:1014300000220026092911DDE068A1F10A0707EB67
:10144000470C072707FA0CF29043A1F10A0707EBB4
:10145000470703FA07F21043E0600CE0206901EB54
:10146000410C072707FA0CF2904301EB410703FAFE
:1014700007F210432061A06BC0F30156EF1C06F188
:10148000010CA7EB0C0707EB870C1F2707FA0CF2E0
:101490009043EF1C06F1010CA7EB0C0707EB870745
:1014A00001FA07F21043A063F0BD10B50A4600210F
:1014B0000023816B21F44011531E41EA03518163E3
:1014C00010BD08B5002300930090009B0B440093CF
:1014D000009B1A6008BD0A460021816821F4702132
:1014E0001143816070470A460021816821F4401150
:1014F000114381607047816841F4800181607047C9
:10150000014600208A6802F480020AB1012000E04E
:101510000020704721B1426842F48062426003E0DB
:10152000426822F480624260704721B1426842F40E
:101530008052426003E0426822F480524260704769
:1015400008B5024600200090009201F12800009B9F
:10155000184400900098006880B208BD10B50B4692
:101560000021D9B2012404FA01F11AB144680C43F4
:10157000446002E044688C43446010BDFFFEFFFC01
:10158000FDF7FFC004230140E030FCFF00200140D4
:10159000FFFD3FFF0246002013680B400BB1012006
:1015A00000E000207047CA430260704770B50246F1
:1015B0000020002300240B12556801268E4005EA06
:1015C000060415681D4015B10CB1012000E0002093
:1015D00070BD00220A12D34303607047016821F0F6
:1015E000010101600021016041608160C160016111
:1015F00021214161DB49884204D13D21D94A103A79
:1016000091608CE0D7491831884205D14FF474615C
:10161000D44A103A916082E0D2493031884205D1F3
:101620004FF47411CF4A103A916078E0CD494831B7
:10163000884205D14FF07461CA4A103A91606EE059
:10164000C8496031884204D1C749C64A103AD160BE
:1016500065E0C4497831884204D1C449C14A103A8E
:10166000D1605CE0BF499031884204D1C049BD4A95
:10167000103AD16053E0BB49A831884205D14FF000
:101680003D51B84A103AD16049E0BA49884204D184
:101690003D21B84A083A116041E0B6491831884204
:1016A00005D14FF47461B34A083A116037E0B1498B
:1016B0003031884205D14FF47411AE4A083A1160B6
:1016C0002DE0AC494831884205D14FF07461A94AF8
:1016D000083A116023E0A7496031884204D1A24949
:1016E000A44A121F11601AE0A2497831884204D13D
:1016F0009E49A04A121F116011E09E499031884214
:1017000004D19B499B4A121F116008E09949A831F6
:10171000884204D14FF03D51964A121F1160704724
:1017200010B500220268944B1A40CC680B68234322
:101730004C6923438C692343CC6923430C6A2343BC
:101740004C6A23438C6A23434C6B23438C6B2343A7
:101750001A430260426922F00702D1E90B342343A5
:101760001A4342610B6943604B6883608B68C360B6
:1017700010BD0021016041608160C1600161416173
:101780008161C161016241628162C1620163416341
:101790008163704721B1026842F00102026003E0F8
:1017A000026822F001020260704721B1026842F42F
:1017B0000042026003E0026822F4004202607047C7
:1017C00021B1026842F02002026003E0026822F0C8
:1017D000200202607047416070470146486880B24D
:1017E000704722B1036843F40023036003E00368F9
:1017F00023F4002303600161704721B1026842F4C1
:101800008022026003E0026822F4802202607047B6
:101810000AB1016100E0C1607047014600200A681A
:1018200002F400220AB1012000E0002070470146C6
:1018300000200A6802F001020AB1012000E0002045
:101840007047014600204A6902F03800704730B501
:1018500003460A4600200024464DAB4202D24149CD
:10186000103901E04349103902F000550DB14C68C0
:1018700000E00C68414D2C4004EA02050DB1012046
:1018800000E0002030BD02463A4B9A4202D2354871
:10189000103801E03748103801F000531BB1374BC6
:1018A0000B40C36002E0354B0B408360704710B5BE
:1018B00001F080034BB122B1436943F080034361DF
:1018C00003E0436923F08003436180290BD02AB1F0
:1018D000036801F01E042343036004E0036801F081
:1018E0001E04A343036010BD70B50246002000240F
:1018F0000025204EB24202D21A4B103B01E01D4B94
:10190000103B1F4E0E4036B11E2606EAD124166843
:1019100006EA040502E0566906F0800501F000566B
:101920000EB15C6800E01C68144E344004EA010605
:1019300016B10DB1012000E0002070BD02460D4B34
:101940009A4202D20748103801E00A48103801F0E4
:1019500000531BB1094B0B40C36002E0074B0B4027
:1019600083607047106002403D000020400F00205F
:1019700000003D20106402403F801CF07D0F7D0F71
:101980003C0F3C0F10B504469848844208D1012111
:10199000084600F086FB0021012000F082FB76E083
:1019A0009348844208D10121022000F07AFB0021F3
:1019B000022000F076FB6AE08E48844208D10121C3
:1019C000042000F06EFB0021042000F06AFB5EE0C2
:1019D0008948844208D10121082000F062FB0021DF
:1019E000082000F05EFB52E08448844208D10121C7
:1019F000102000F056FB0021102000F052FB46E0C2
:101A00007F48844208D10121202000F04AFB0021B8
:101A1000202000F046FB3AE07A48844208D10121B8
:101A2000402000F03EFB0021402000F03AFB2EE079
:101A30007548844208D10121802000F032FB00214A
:101A4000802000F02EFB22E07048844208D1012162
:101A5000801500F026FB0021A01500F022FB16E007
:101A60006B48844208D10121401500F01AFB002187
:101A7000601500F016FB0AE06648844207D1012198
:101A8000001500F00EFB0021201500F00AFB10BD30
:101A9000F0B50A4600210023002400BF3DE00125E7
:101AA00005FA01F3156805EA03049C4234D1056880
:101AB0004F000326BE40B543056015794E00B54082
:101AC0000668354305601579012D02D01579022D80
:101AD00016D185684F000326BE40B5438560557911
:101AE0004E00B540866835438560456801268E40C6
:101AF000B5434560456896798E40B6B2354345603A
:101B0000C5684F000326BE40B543C560D5794E0079
:101B1000B540C6683543C560491C1029BFD3F0BD28
:101B20004FF6FF7101600021017141718171C17136
:101B3000704708B54FF480320092009A0A43009231
:101B4000009AC261C161009AC261C2690092C26911
:101B5000009208BD0246002013690B400BB1012022
:101B600000E0002070470146086980B270470246D5
:101B7000002053690B400BB1012000E000207047AA
:101B80000146486980B270470183704741837047BE
:101B90000AB1018300E041837047416170474269A7
:101BA0004A4042617047F0B5002300244D07ED0E16
:101BB00002FA05F3CE1000F1200555F826504E0725
:101BC000F70E0F26BE40B543CF1000F1200646F8B1
:101BD0002750CE1000F1200555F8265045EA0304A1
:101BE000CE1000F1200545F82640F0BD000002406F
:101BF0000004024000080240000C024000100240B5
:101C00000014024000180240001C02400020024064
:101C10000024024000280240F948006840F001001A
:101C2000F74908600020F64908310860F448006868
:101C3000F4490840F2490860F348091D0860F34878
:101C4000EF4984310860F0481038091D0860EC48FD
:101C5000006820F48020EA4908600020E8490C313F
:101C60000860E7498C31086070470021E44A921C03
:101C7000117011460870704710B50146002200230C
:101C800000204A11012A02D1DD4C236808E0022A13
:101C900003D1DB4C7034236802E0D94C74342368E0
:101CA00001F01F02012494401C400CB1012000E00F
:101CB000002010BD38B5002000900024002500BF92
:101CC0003120FFF7D9FF05460098401C009000988E
:101CD000B0F5A04F01D0002DF2D03120FFF7CCFF9E
:101CE00008B1012400E00024204638BD0146002050
:101CF000C34A106820F0F80040EAC1001060704745
:101D0000C349086070470021BD4A703211701170DC
:101D1000012802D004280AD104E00121B84A703217
:101D2000117005E00521B64A7032117000E000BF65
:101D300000BF7047B7490860704770B5049C41EA1E
:101D400082150126C6EB530645EA0645054345EADA
:101D50000465AB4E361D356070BDAD4908667047F1
:101D6000820142EA0172A64B84331A607047A84987
:101D70008866704710B5830143EA016343EA027342
:101D80009F4C8834236010BDA14908677047A04963
:101D9000C864704702460020994B0833186820F049
:101DA000EC6042EA01031843954B08331860704712
:101DB00002460020924B0833186820F0784042EA2F
:101DC000010318438E4B083318607047014600200A
:101DD0008B4A0832106820F00300084310607047F7
:101DE00087480830006800F00C007047014600206A
:101DF000834A0832106820F0F000084310607047F2
:101E0000014600207E4A0832106820F4E050084362
:101E10001060704701460020794A0832106820F4AB
:101E2000604040EAC10010607047F0B50021002218
:101E30000024022500260223714F08373F6807F06F
:101E40000C0121B1042905D0082937D105E0724FD2
:101E5000076036E0714F076033E0694F3F1D3F6810
:101E6000C7F38056664F3F1D3F6807F03F036EB1D2
:101E70006A4FB7FBF3F7DFF888C10CF1040CDCF80C
:101E800000C0CCF3881C07FB0CF40CE0624FB7FBDE
:101E9000F3F7DFF86CC10CF1040CDCF800C0CCF3F4
:101EA000881C07FB0CF4564F3F1D3F68C7F30147E2
:101EB0007F1C7D00B4FBF5F7076002E0564F07601A
:101EC00000BF00BF4E4F08373F6807F0F001090917
:101ED000534F7A5C0768D7404760494F08373F68DF
:101EE00007F4E051890A4E4F7A5C4768D740876013
:101EF000434F08373F6807F46041490B484F7A5C0D
:101F00004768D740C760F0BD002100F44072B2F5C9
:101F1000407F0AD13A4A0832116821F4F811414A47
:101F200002401143364A08321160354A7032126855
:101F3000C0F30B031A43324B70331A6070473549B4
:101F40004439086070473349403908607047364962
:101F50000860704701460020294A8C32106820F042
:101F60001F004A1E1043264A8C32106070470146FB
:101F70000020234A8C32106820F4F8504A1E40EAB0
:101F800002201F4A8C3210607047014600201C4A14
:101F90008C32106820F440100843106070470146EE
:101FA0000020174A8C32106820F44000084310606B
:101FB000704701460020124A8C32106820F44030ED
:101FC00008431060704719490860704739B10C4ADE
:101FD0003032126802430A4B30331A6006E0084A76
:101FE000303212688243064B30331A607047F9B1C1
:101FF000034A343212680243014B34331A601CE046
:1020000000380240FFFFF6EA1030002400300020C4
:1020100000004742800E47420024F40000127A007C
:1020200064000020FFFCFF0F5C014742E0114742C3
:102030008F4A126882438E4B1A60704739B18C4ABE
:10204000121D126802438A4B1B1D1A6006E0884A63
:10205000121D12688243864B1B1D1A60704739B1EE
:10206000834A0C3212680243814B0C331A6006E03B
:102070007F4A0C32126882437D4B0C331A607047E2
:1020800039B17B4A103212680243794B10331A601F
:1020900006E0774A103212688243754B10331A609B
:1020A000704739B1724A243A12680243704B243B9C
:1020B0001A6006E06E4A243A126882436C4B243B55
:1020C0001A60704739B16A4A203A12680243684B75
:1020D000203B1A6006E0664A203A12688243644B4D
:1020E000203B1A60704739B1614A1C3A12680243BA
:1020F0005F4B1C3B1A6006E05D4A1C3A1268824343
:102100005B4B1C3B1A60704739B1594A143A12684C
:102110000243574B143B1A6006E0554A143A1268C2
:102120008243534B143B1A60704739B1504A103AFE
:10213000126802434E4B103B1A6006E04C4A103ABC
:10214000126882434A4B103B1A60704739B1484AC3
:102150001C3212680243464B1C331A6006E0444AA4
:102160001C3212688243424B1C331A60704739B1EB
:102170003F4A2032126802433D4B20331A6006E08A
:102180003B4A203212688243394B20331A60704731
:1021900039B1374A243212680243354B24331A606E
:1021A00006E0334A243212688243314B24331A60EA
:1021B000704739B12E4A2C32126802432C4B2C3313
:1021C0001A6006E02A4A2C3212688243284B2C33CC
:1021D0001A60704739B1264A303212680243244BE4
:1021E00030331A6006E0224A303212688243204BB4
:1021F00030331A607047012808D11D493C31096805
:1022000041F008011A4A3C32116007E018493C319C
:10221000096821F00801164A3C321160704739B153
:10222000134A273A12780243114B273B1A7006E0F3
:102230000F4A273A127882430D4B273B1A7070479A
:102240000B484030006840F0807009494031086018
:10225000704701460020064A283A12680A400AB12F
:10226000012000E0002070470149263908707047BE
:102270003438024010B50446FB48844208D101219D
:102280008014FFF752FF0021A014FFF74EFF3CE03F
:10229000F648844208D101210014FFF735FF0021E0
:1022A0002014FFF731FF30E0F148844208D10121CA
:1022B000C013FFF729FF0021E013FFF725FF24E0FB
:1022C000EC48844208D101214014FFF72EFF002181
:1022D0006014FFF72AFF18E0E748844209D1012182
:1022E0000805FFF722FF00214FF48010FFF71DFFC4
:1022F0000BE0E248844208D101214805FFF715FFB1
:1023000000214FF40010FFF710FF10BD10B50022A0
:10231000028802F441520B884C8823438C88234363
:10232000CC8823430C8923434C8923438C89234342
:10233000CC8923431A430280838B4FF2FF742340DE
:1023400083830B8A038210BD2DE9F04F0025022301
:1023500000244FF0010900220026002794469046F1
:10236000B0F81CA04FF2400B0AEA0B0AA0F81CA020
:102370004FF0020AA0F820A0858BD1F808A0BAF18E
:10238000020F01D100BF82E0B1F804A0BAF1000F42
:1023900002D14FF0010901E04FF00209DFF8E0A29D
:1023A000DAF800A00AF4000ABAF1000F09D0DFF849
:1023B000D0A2DAF800A02AF4000ADFF8C4B2CBF801
:1023C00000A0DFF8BCA20AF17C0ADAF800A0CAF388
:1023D000881CDFF8ACA20AF17C0ADAF800A0CAF384
:1023E0000278DFF89CA2AAF1040ADAF800A00AF049
:1023F0003F07DFF88CA2AAF1040ADAF800A00AF479
:10240000800ABAF5800F08D1DFF878A2BAFBF7FA94
:102410000AFB0CFABAFBF8F607E0DFF86CA2BAFB8D
:10242000F7FA0AFB0CFABAFBF8F6B1F806A0BAF50F
:10243000007F0ED14FEA162A0AEB8A0A4FEA4A0AAF
:10244000D1F808B0BAFBFBFA0AF1050A1FFA8AF2C2
:102450000FE04FEA491AB6FBFAFA0AEB8A0A4FEA8A
:102460004A0AD1F808B0BAFBFBFA0AF1050A1FFACA
:102470008AF24FF00A0AB2FBFAF202F00104A2EB70
:10248000040ACAF34F034FF6FF7A0AEA0424022B28
:1024900001DBFF2B01DD02230024B1F806A04AEA8C
:1024A000040A4AEA030AA0F820A0B1F804A0B1F88F
:1024B0000CB04AEA0B0AB1F802B04AEA0B0AB1F8CA
:1024C00000B04AEA0B0A4AF4006A4AEA0505858325
:1024D000BDE8F08F0021018041808180C1800181B1
:1024E00041818181C18107210182704700210180E2
:1024F00041808180C18002218160002181817047FB
:1025000021B1028842F04002028004E002884FF6C6
:10251000BF731A400280704721B1828B42F48062FF
:10252000828304E0828B4FF6FF331A408283704728
:1025300002884FF2FF731A40028002880A43028029
:102540007047B1F5804F04D1028842F48042028086
:1025500004E002884BF6FF731A40028070474FF682
:10256000FF62914204D0028842F48072028004E04B
:1025700002884FF6FF631A400280704721B18288BB
:1025800042F00402828004E082884FF6FB731A4016
:102590008280704721B1828842F01002828004E07C
:1025A00082884FF6EF731A408280704730B5002260
:1025B0000023848B4FF240052C4084830224048442
:1025C000828B0C88B4F5007F01D00C8814B94FF4CD
:1025D000807308E00C88B4F5407F03D00C88B4F514
:1025E000807F00D100238C888D892C434D882C431B
:1025F0001C4344F400642243828330BD0146888931
:1026000070478181704721B1028842F400520280F4
:1026100004E002884DF6FF731A400280704701887B
:1026200041F480510180704702460020012901D009
:10263000108B00E0908A70470146088A70471AB1F3
:1026400083880B43838002E083888B4383807047B9
:1026500030B5002400230C110125A540ABB2AAB16E
:1026600085881D43858014E000300140003800401B
:10267000003C004000340140005001400054014043
:102680000838024000127A000024F40085889D4337
:10269000858030BD0246002013890B400BB101201C
:1026A00000E000207047CA4302817047F0B502463F
:1026B000002000240023002501F00F070126BE4062
:1026C000B4B20B1101269E40B3B2968806EA030508
:1026D0001689264016B10DB1012000E00020F0BDA2
:1026E00010B5002201F00F040123A3409AB2D34396
:1026F000038110BD10B50446FE48844208D1012173
:102700000846FFF712FD00210120FFF70EFD9DE0B6
:10271000B4F1804F08D101210846FFF7F5FC0021F4
:102720000120FFF7F1FC91E0F348844208D1012138
:102730000220FFF7E9FC00210220FFF7E5FC85E01D
:10274000EE48844208D101210420FFF7DDFC00217E
:102750000420FFF7D9FC79E0E948844208D101213F
:102760000820FFF7D1FC00210820FFF7CDFC6DE029
:10277000E448844208D101211020FFF7C5FC002164
:102780001020FFF7C1FC61E0DF48844208D101213D
:102790002020FFF7B9FC00212020FFF7B5FC55E011
:1027A000DA48844208D101210220FFF7BEFC002153
:1027B0000220FFF7BAFC49E0D548844209D1012143
:1027C0000804FFF7B2FC00214FF48030FFF7ADFCA6
:1027D0003CE0D048844209D101214804FFF7A5FC20
:1027E00000214FF40030FFF7A0FC2FE0CA488442DC
:1027F00009D101218804FFF798FC00214FF48020C3
:10280000FFF793FC22E0C548844208D10121402013
:10281000FFF77AFC00214020FFF776FC16E0C04865
:10282000844208D101218020FFF76EFC0021802026
:10283000FFF76AFC0AE0BB48844207D101218015FA
:10284000FFF762FC0021A015FFF75EFC10BD00221F
:102850000288A84B98420ED0AC4B98420BD0B0F1F6
:10286000804F08D0A44B984205D0A44B984202D088
:10287000A34B984204D14FF68F731A404B881A43EA
:10288000A04B984207D0A04B984204D04FF6FF438C
:102890001A400B891A4302804B68C3620B88038578
:1028A000944B984202D0994B984201D18B7A03867F
:1028B0000123838270474FF0FF3141600021018086
:1028C00001814180817270470185828270470A468A
:1028D000002101884FF68F73194011430180704722
:1028E00041627047C16270470146486A70470146BD
:1028F000088D704721B1028842F00202028004E094
:1029000002884FF6FD731A400280704721B1028899
:1029100042F00402028004E002884FF6FB731A4082
:102920000280704721B1028842F08002028004E0F8
:1029300002884FF67F731A400280704702884FF674
:10294000F7731A40028002880A43028070470288A7
:102950004FF6FF431A40028002880A430280704704
:1029600021B1028842F00102028004E002884FF6A1
:10297000FE731A400280704770B5002400220023C5
:10298000058C4FF6FE7635400584028C8388048BD7
:102990004FF68F752C40B51E2C400D882C43751EAC
:1029A0002A408D892A434D882A43524DA84202D09D
:1029B000564DA84213D14FF6F7752A40CD892A43C8
:1029C0004FF6FB752A408D882A434FF6FF652B4052
:1029D0004FF6FF552B400D8A2B434D8A2B438380A6
:1029E00004838D684563028470BD70B500240022A5
:1029F0000023058C4FF6EF7635400584028C8388E2
:102A0000048B48F6FF752C404FF6FF452C400D888F
:102A10004FF6FF7606EA05252C434FF6DF752A4070
:102A20008D8906EA05152A434D8806EA05152A43CD
:102A3000304DA84202D0354DA8421DD14FF67F75CA
:102A40002A40CD894FF6FF7606EA05152A434FF650
:102A5000BF752A408D8806EA05152A434FF6FF35D3
:102A60002B404FF2FF752B400D8A06EA85052B435C
:102A70004D8A06EA85052B43838004838D68856330
:102A8000028470BD70B5002400220023058C4FF62F
:102A9000FF6635400584028C8388848B4FF68F75E2
:102AA0002C404FF6FC752C400D882C434FF6FF55FB
:102AB0002A408D894FF6FF7606EA05252A434D8880
:102AC00006EA05252A430B4DA84202D00F4DA84225
:102AD00038D14FF2FF752A40CD894FF6FF7606EACE
:102AE00005252A434FF6FF352A408D8806EA05253D
:102AF0002A4319E0000001400004004000080040A3
:102B0000000C004000100040001400400004014090
:102B100000400140004401400048014000180040CE
:102B2000001C0040002000404EF6FF752B404DF683
:102B3000FF752B400D8A06EA05152B434D8A06EAE0
:102B400005152B43838084838D68C563028470BD23
:102B500070B5002200230024058C4EF6FF76354028
:102B60000584038C8488828B48F6FF752A404FF6D3
:102B7000FF452A400D884FF6FF7606EA05252A43D1
:102B80004DF6FF752B408D8906EA05352B434D88A0
:102B900006EA05352B43FE4DA84202D0FD4DA84262
:102BA00008D14BF6FF752C400D8A4FF6FF7606EAEA
:102BB00085152C43848082838D680564038470BDF1
:102BC000002101804180818081608181C1810182F9
:102BD0004182704770B50346002000241846183023
:102BE00001258D40ACB21D8CA5431D8409B1082977
:102BF0000AD100EB610005684FF68F76354005601D
:102C00000568154305600FE00D1FC5F34E05284408
:102C1000056848F6FF763540056005684FF6FF7693
:102C200006EA02263543056070BD41637047816343
:102C30007047C1637047016470470A460021018BE9
:102C40004FF68F7319401143018370470A460021E4
:102C5000018B48F6FF7319404FF6FF7303EA022316
:102C60001943018370470A460021818B4FF68F7309
:102C700019401143818370470A460021818B48F631
:102C8000FF7319404FF6FF7303EA02231943818350
:102C900070470A460021018B4FF6F7731940114324
:102CA000018370470A460021018B4FF2FF731940E0
:102CB0004FF6FF7303EA02231943018370470A4664
:102CC0000021818B4FF6F7731940114381837047C0
:102CD0000A460021818B4FF2FF7319404FF6FF73B4
:102CE00003EA02231943818370470A460021018BBE
:102CF0004FF6FB7319401143018370470A460021C8
:102D0000018B4FF6FF3319404FF6FF7303EA02239E
:102D10001943018370470A460021818B4FF6FB73EC
:102D200019401143818370470A460021818B4FF679
:102D3000FF3319404FF6FF7303EA022319438183DF
:102D400070470A460021018B4FF67F7319401143EB
:102D5000018370470A460021018BC1F30E014FF633
:102D6000FF7303EA02231943018370470A460021D7
:102D7000818B4FF67F7319401143818370470A4658
:102D80000021818BC1F30E014FF6FF7303EA02238A
:102D90001943818370470A460021018C4FF6FD7369
:102DA00019401143018470470A460021018C4FF6F7
:102DB000F77319401143018470470A460021018CC2
:102DC0004FF6DF7319404FF6FF7303EA02131943FE
:102DD000018470470A460021018C4FF67F73194029
:102DE0004FF6FF7303EA02131943018470470A4642
:102DF0000021018C4FF6FF5319404FF6FF7303EA91
:102E000002231943018470470A460021018C4FF2C6
:102E1000FF7319404FF6FF7303EA0223194301843D
:102E200070470A460021018C4DF6FF7319404FF69A
:102E3000FF7303EA023319430184704730B500235E
:102E400001248C40A3B2048C9C430484048C02FAB9
:102E500001F5ADB22C43048430BD30B50023042409
:102E60008C40A3B2048C9C430484048C02FA01F5C8
:102E7000ADB22C43048430BD828B4FF2FF331A4035
:102E80008283828B4FF6FF7303EA01231A43828306
:102E90007047F0B50C461546002100220026078C2D
:102EA0004EF6FF7C07EA0C070784818B028C4FF6F5
:102EB000FF7707EA043640F6FF4739404FF6FF77C1
:102EC00007EA052739434FF6FF7707EA0337394307
:102ED00045F6FF773A4046F480573A4381830284AF
:102EE000F0BD828B4FF6F3731A408283828B0A43C4
:102EF00082837047F0B50C4615460021002200265B
:102F0000078C4FF6FF6C07EA0C070784818B028C55
:102F10004FF6FF7707EA04264FF60C7739404FF655
:102F2000FF7707EA03172F4339434FF2FF573A4021
:102F300046F480773A4381830284F0BD028B4FF2DE
:102F4000FF331A400283028B4FF6FF7303EA01231B
:102F50001A4302837047F0B50C4615460021002243
:102F60000026078C4FF6EF7C07EA0C070784018BDD
:102F7000028C4FF6FF7707EA041640F6FF47394008
:102F80004FF6FF7707EA033739434FF6FF7703E041
:102F9000000001400004014007EA052739434FF6CD
:102FA0005F773A4046F010073A4301830284F0BD50
:102FB000028B4FF6F3731A400283028B0A4302839B
:102FC0007047F0B50C46154600210022068C4FF6DE
:102FD000FE773E400684018B028C4FF60C76314022
:102FE0007E1C06EA03162E4331434FF6F576324037
:102FF00044F00106324301830284F0BD70B50546FA
:103000000C46208850B92389A28861882846FFF79A
:10301000D8FFE1882846FFF7CBFF25E02088042869
:103020000AD12389A28861882846FFF794FFE188A6
:103030002846FFF783FF17E0208808280AD1238954
:10304000A28861882846FFF755FFE1882846FFF7E8
:1030500048FF09E02389A28861882846FFF719FF05
:10306000E1882846FFF708FF70BD002101804180FC
:10307000012181800021C180018170472DE9F0414B
:1030800005460C4600260127608808B9022600E0A4
:103090000026A088012801D1022700E0012720880E
:1030A000A0B92389A28861882846FFF78AFFE188B2
:1030B0002846FFF77DFF23893A4631462846FFF729
:1030C0004AFFE1882846FFF739FF13E02389A288E9
:1030D00061882846FFF73FFFE1882846FFF72EFF6B
:1030E00023893A4631462846FFF76BFFE188284698
:1030F000FFF75EFFBDE8F0810146486B704701466F
:10310000886B70470146C86B70470146086C704772
:103110000A884B881A438B881A43CB881A430B8939
:103120001A434B891A438B891A43A0F844207047ED
:103130000021018041808180C180018141818181A4
:10314000704731B1B0F8442042F40042A0F8442066
:1031500005E0B0F84420C2F30E02A0F84420704706
:1031600021B1828842F00402828004E082884FF616
:10317000FB731A408280704721B1828842F00102BD
:10318000828004E082884FF6FE731A408280704786
:103190001AB183890B43838102E083898B43838146
:1031A00070478182704702460020138A0B400BB1A2
:1031B000012000E000207047CA430282704730B50A
:1031C0000246002000230024158A05EA01039589A0
:1031D00005EA010413B10CB1012000E0002030BD6C
:1031E000CA430282704741EA0203A0F848307047A0
:1031F0001AB183890B43838102E083898B438381E6
:10320000704721B1828842F00802828004E08288FF
:103210004FF6F7731A408280704701894FF6F872B3
:103220001140018170470A46002101894FF68F73D2
:10323000194011430181704730B504460D462946B7
:103240002046FFF7F0FF208940F00700208130BDC5
:103250002DE9F04104460D4616461F46602D06D165
:103260003B46012231462046FFF775FE05E03B460E
:10327000012231462046FFF7A4FE29462046FFF7EB
:10328000D2FF208940F007002081BDE8F08130B5F1
:103290000C4600210189C9B24FF6FF7505EA0325E6
:1032A000154325432943018130BD2DE9F0410546F1
:1032B0000E4617469846002443463A46314628466D
:1032C000FFF7E5FF2C894FF6F870044044F007043F
:1032D0004FF68F70044044F070042C81BDE8F081FB
:1032E000F0B504460D4616461F463B463246294673
:1032F0002046FFF7CCFF208940F480402081F0BDBC
:1033000082884FF68F731A40828082880A438280B7
:10331000704702894FF6F8731A40028102890A4306
:103320000281704702894FF67F731A400281028939
:103330000A4302817047F0B50C4615461E4600212F
:10334000002200230189028B038C4FF6F877394065
:1033500021434FF6FC473A4040F201173A434FF6FB
:10336000DD773B404FF6FF7707EA06172F433B43D5
:10337000018102830384F0BD21B1828842F0800282
:10338000828004E082884FF67F731A408280704703
:10339000A0F850107047000010B50446FA48844267
:1033A00008D101211020FEF7C0FE00211020FEF7F9
:1033B000BCFE57E0F548844209D101214804FEF7DC
:1033C000A3FE00214FF40030FEF79EFE4AE0F048D5
:1033D000844209D101218804FEF796FE00214FF4B2
:1033E0008020FEF791FE3DE0EA48844209D10121A8
:1033F000C804FEF789FE00214FF40020FEF784FE8A
:1034000030E0E548844209D101210805FEF77CFE41
:1034100000214FF48010FEF777FE23E0DF4884425E
:1034200008D101212020FEF780FE00212020FEF798
:103430007CFE17E0DA48844209D101218807FEF7B3
:1034400063FE00214FF08040FEF75EFE0AE0D548A3
:10345000844207D101214005FEF756FE0021600598
:10346000FEF752FE10BD2DE9FF4705460E4600242B
:10347000A14600BFA046B08900B100BF2C8A24F449
:103480004054F08804432C82AC8941F20C608443A0
:10349000B08831890843718908430443AC81AC8A00
:1034A00024F44074B0890443AC826846FEF7BDFC46
:1034B000B548854202D0B948854202D1DDF80C906A
:1034C00001E0DDF80890A88900F4004040B109EB64
:1034D000C90000EB091031684900B0FBF1F707E0C3
:1034E00009EBC90000EB091031688900B0FBF1F766
:1034F0006420B7FBF0F004012009642101FB10787F
:10350000A88900F4004040B1322000EBC800B0FBB5
:10351000F1F000F00700044308E0322000EB08104F
:103520006421B0FBF1F000F00F0004432C81BDE8F2
:10353000FF874FF41651016000218180C180018115
:103540000C21418100218181704710B50246002085
:10355000108A20F470600B884C8823438C882343A6
:10356000CC8823431843108210BD00210180418084
:103570008180C180704721B1828942F400528281EA
:1035800004E082894DF6FF731A4082817047028BF6
:1035900002F47F420283028B0A430283704721B107
:1035A000828942F40042828103E08289C2F30E02E2
:1035B0008281704721B1828A42F40062828204E0F3
:1035C000828A4FF2FF731A4082827047C1F3080269
:1035D0008280704701468888C0F308007047028ADD
:1035E0004FF6F0731A400282028A0A430282704741
:1035F00021B1828942F00202828104E082894FF681
:10360000FD731A408281704782894FF2FF731A401E
:10361000828182890A4382817047028A4FF6DF7372
:103620001A400282028A0A430282704721B1028A4A
:1036300042F48042028204E0028A4BF6FF731A4091
:1036400002827047818941F001018181704721B177
:10365000828A42F00802828204E0828A4FF6F7737F
:103660001A4082827047028BD2B20283028B42EAF6
:1036700001220283704721B1828A42F020028282B5
:1036800004E0828A4FF6DF731A408282704721B1CC
:10369000828A42F01002828204E0828A4FF6EF733F
:1036A0001A4082827047828A4FF6FB731A408282E8
:1036B000828A0A438282704721B1828A42F00202E2
:1036C000828204E0828A4FF6FD731A40828270473C
:1036D0001AB1838A0B43838202E0838A8B438382FD
:1036E0007047F0B50346002400260025002040F670
:1036F0006A17B94200D100BF1846C1F3421401F065
:103700001F06012707FA06F5012C01D10C3004E051
:10371000022C01D1103000E014301AB107682F4399
:10372000076002E00768AF430760F0BD0246002073
:10373000B1F5007F00D100BF13880B400BB1012011
:1037400000E00020704701F40072B2F5007F00D164
:1037500000BFCA430280704770B5024600240023B0
:103760000025002040F66A16B14200D100BFC1F327
:10377000421501F01F03012606FA03F3012D13D1B0
:103780009689334017E000000010014000440040DB
:1037900000480040004C0040005000400014014030
:1037A00000780040007C0040022D02D1168A334090
:1037B00001E0968A33400C12012606FA04F41688BA
:1037C000344013B10CB1012000E0002070BD10B5F1
:1037D0000022002340F66A14A14200D100BF0A1261
:1037E00001249440A3B2DC43048010BD70477047AD
:1037F0007047754600F02CF8AE4605006946534602
:1038000020F00700854618B020B5FDF733FCBDE871
:1038100020404FF000064FF000074FF000084FF037
:10382000000B21F00701AC46ACE8C009ACE8C009C8
:10383000ACE8C009ACE8C0098D46704710B5044635
:10384000AFF300802046BDE81040FCF7E6BC000066
:1038500000487047A400002001491820ABBEFEE7D5
:103860002600020070474FF04070E1EE100A7047EA
:10387000903800080000002074000000C401000817
:10388000043900087400002094060000E0010008DC
:103890000000000000000000000000000000000028
:1038A0000000000000000000000000000000000018
:1038B000000C024000100240000C024000040240D4
:1038C00000100240000C0240004000020001000213
:1038D0000100000400800004000200010200000852
:1038E000007A030A00000000000000000102030447
:1038F0000607080900000000010203040102030496
:0439000006070809A5
:040000050800018965
:00000001FF
