:020000040800F2
:10000000A008002079190008491700084B170008BC
:100010004F1700085317000857170008000000008A
:100020000000000000000000000000005B17000856
:100030005D170008000000005F1700086117000846
:1000400093190008931900089319000893190008E0
:1000500093190008931900089319000893190008D0
:1000600093190008931900089319000893190008C0
:1000700093190008931900089319000893190008B0
:1000800093190008931900089319000893190008A0
:100090009319000893190008931900089319000890
:1000A0009319000893190008931900089319000880
:1000B000C514000893190008931900089319000843
:1000C0009319000893190008931900089319000860
:1000D00093190008F11600080B170008931900087F
:1000E0009319000893190008931900089319000840
:1000F0009319000893190008931900089319000830
:10010000931900089319000893190008931900081F
:10011000931900089319000893190008931900080F
:1001200093190008931900089319000893190008FF
:1001300093190008931900089319000893190008EF
:1001400093190008931900089319000893190008DF
:1001500093190008931900089319000893190008CF
:1001600093190008931900089319000893190008BF
:1001700093190008931900089319000893190008AF
:10018000931900089319000800F002F800F03CF8F9
:100190000AA090E8000C82448344AAF10107DA45E2
:1001A00001D100F031F8AFF2090EBAE80F0013F0F8
:1001B000010F18BFFB1A43F001031847D43F00009A
:1001C000F43F0000103A24BF78C878C1FAD852072B
:1001D00024BF30C830C144BF04680C6070470000C1
:1001E0000023002400250026103A28BF78C1FBD840
:1001F000520728BF30C148BF0B6070471FB503F0DE
:10020000C2FF1FBD10B510BD03F083FF1146FFF7FD
:10021000F5FF00F02BF803F0A1FF03B4FFF7F2FFA6
:1002200003BC03F0A9FF000010B54FF4A06001F07B
:10023000C3FB00F073FF01F02FFA40F2D3110C2042
:1002400000F0DEFF00F0AAFF01F08BF800F009FFDC
:1002500000F0D8FB00F017FD01F052F910BD10B509
:100260004FF4FA7000F0ECFB012010BD10B5FFF761
:10027000DBFF83E000F0A8FB00F085FF424AD2E9F3
:1002800000320446E31A61EB02000021D3F10A02B6
:10029000814173D200F077FF3B4A03C23B4800889C
:1002A00081B2002001F0A4F83848008881B2012012
:1002B00001F09EF83548008881B2022001F098F8DC
:1002C0003248008881B2032001F092F82F4800885C
:1002D00081B2042001F08CF82C48008881B20520FE
:1002E00001F086F829480068401C28490860084643
:1002F0000068B0F5EA7F06DB00200860244800783B
:10030000401C234908702249087800EBD07149103D
:10031000A0EB4101C1B10021084601F094F8002191
:10032000012001F090F80021022001F08CF800215A
:10033000032001F088F80021042001F084F8002156
:10034000052001F080F817E00121002001F07BF882
:100350000121084601F077F80121022001F073F82D
:100360000121032001F06FF80121042001F06BF856
:100370000121052001F067F800F0E6FDFFF76FFFAF
:1003800000287FF477AF10BD000000200800002097
:100390000C000020FEB500F0F6FEFE4A1268821A3C
:1003A00061F10001322300209A1A884121D20025F0
:1003B00000F07CFC044600F0E6FEF6490860607838
:1003C000022815D1E06806796F4600BF06E0E068B4
:1003D000401D405D40B20DF805006D1CB542F6DBD6
:1003E0000020607022783146384600F004FC00BFDF
:1003F00000BFFEBD10B5044600F01DFBE6490860D5
:1004000008460068806830F8140000B204EB8401EC
:10041000E24A22F8110004EB8400114631F9100081
:1004200004EB840102EB4101B1F90210084404EB32
:10043000840102EB4101B1F90410084404EB84018A
:1004400002EB4101B1F906100844801000B204EB40
:10045000840102EB4101088104EB8400114601EBA9
:100460004000808804EB840102EB4101C88004EB6A
:100470008400114601EB4000408804EB840102EB4C
:100480004101888004EB8400114631F8100004EB30
:10049000840102EB4101488004EB8400114601EB2A
:1004A0004000B0F90800B0F57A6F06DD4FF47A60CD
:1004B00004EB840102EB4101088104EB8400B7499D
:1004C00001EB40000089B64931F81410401A00B21F
:1004D00004EB8401B14A02EB4101088104EB840082
:1004E000114601EB4000B0F9080000280CDA04EBDB
:1004F000840001EB4000008900F57A6000B204EB53
:10050000840102EB4101088110BD10B5044600F0E2
:1005100092FAA449086008460068006830F81400A0
:1005200001B204EB84029D483C3020F8121004EB29
:10053000840130F9111004EB840200EB4200B0F9A1
:100540000200014404EB840294483C3000EB42007A
:10055000B0F90400014404EB840290483C3000EB05
:100560004200B0F906000844801001B204EB840296
:100570008A483C3000EB4200018104EB840187484B
:100580003C3000EB4100818804EB840283483C301E
:1005900000EB4200C18004EB840180483C3000EB5A
:1005A0004100418804EB84027C483C3000EB42006F
:1005B000818004EB840179483C3030F8111004EB61
:1005C000840200EB4200418010BD10B5044600F0EB
:1005D00032FA7549086008460068406830F814002F
:1005E00001B204EB84026D48783020F8121004EB5D
:1005F000840130F9111004EB840200EB4200B0F9E1
:100600000200014404EB84026448783000EB4200AD
:10061000B0F90400014404EB84026048783000EB38
:100620004200B0F906000844801001B204EB8402D5
:100630005A48783000EB4200018104EB84015748AE
:10064000783000EB4100818804EB84025348783015
:1006500000EB4200C18004EB84015048783000EB8D
:100660004100418804EB84024C48783000EB4200A2
:10067000818004EB84014948783030F8111004EB94
:10068000840200EB4200418010BD10B500F07BFDFC
:10069000464A1268821A61F10001322300209A1A38
:1006A000884118D200F06FFD4049086000240AE03C
:1006B0002046FFF79FFE2046FFF727FF2046FFF763
:1006C00084FF601CC4B2052CF2DB0520FFF792FE0C
:1006D0000520FFF77AFF10BDFEB500F054FD344A47
:1006E0001268821A61F10001322300209A1A8841AF
:1006F00032D20024002500F0D9FA064600F043FD6E
:100700002B490860B078022825D16F4600BF18E059
:1007100005EB850121483C3000EB4100B0F90800B1
:1007200000120DF8040005EB85011C483C3000EB7D
:100730004100007A41B2601C0DF80010681CC5B27F
:10074000A41C0C2CE4DB32780A21384600F053FA62
:100750000021B17000BF00BFFEBDFEB500F013FD6B
:10076000144A1268821A61F10001322300209A1A99
:10077000884143D20024002500F098FA064600F094
:1007800002FD0C490860F078022836D16F4600BFA0
:1007900029E000001C00002010000020EC000020D8
:1007A000A0010020140000201800002024000020D8
:1007B000280000203000002005EB85018B4800EB6D
:1007C0004100B0F9080000120DF8040005EB8501A6
:1007D000864800EB4100007A41B2601C0DF8001021
:1007E000681CC5B2A41C0C2CE6DB32780C21384600
:1007F00000F001FA0021F17000BF00BFFEBDFEB5A0
:1008000000F0C1FC7A4A1268821A61F100013223B9
:1008100000209A1A884130D20025002400F046FAC0
:10082000064600F0B0FC724908603079022823D1F6
:100830006F4600BF16E005EB85006C49783901EB87
:100840004000B0F9080000120DF8040005EB850027
:1008500001EB4000007A41B2601C0DF80010681CEA
:10086000C5B2A41C0C2CE6DB32780C21384600F013
:10087000C2F90021317100BF00BFFEBD0246100267
:10088000431898B270472DE9F04100F07CFC594ABA
:100890001268821A61F10001322300209A1A8841FD
:1008A00024D20025002600F001FA044600F06BFC7B
:1008B00050490860E079022817D1E068077900BF45
:1008C0000EE0E268521D6B1CD15CE268521D505D67
:1008D000FFF7D4FF484921F81600701CC6B2AD1CC2
:1008E000BD42EEDB0021E17100BF00BFBDE8F08139
:1008F0002DE9F04100F047FC404A1268821A61F18C
:100900000001322300209A1A884125D200250026B2
:1009100000F0CCF9044600F036FC384908606079F4
:10092000022818D1E068077900BF0FE0E268521D85
:100930006B1CD15CE268521D505DFFF79FFF2E4992
:100940000C3121F81600701CC6B2AD1CBD42EDDBA7
:100950000021617100BF00BFBDE8F0812DE9F041C9
:1009600000F011FC264A1268821A61F1000132235C
:1009700000209A1A884125D20025002600F096F919
:10098000044600F000FC1E490860A079022818D136
:10099000E068077900BF0FE0E268521D6B1CD15C74
:1009A000E268521D505DFFF769FF1349163121F8C7
:1009B0001600701CC6B2AD1CBD42EDDB0021A1715A
:1009C00000BF00BFBDE8F08110B5FFF7E3FCFFF703
:1009D0005AFFFFF78DFFFFF7C1FFFFF7BEFEFFF7DE
:1009E0007BFEFFF70CFFFFF750FE10BD64010020F7
:1009F000380000203C000020CA00002044000020F5
:100A00004C00002070B500F065F900F004FA00F029
:100A1000A2FA044600F078FB054604F10C000749F1
:100A20000860084644608560E868C860A06908619D
:100A3000E069486170BD014870470000AC010020CA
:100A400070B5044600F09FFB084B0CCB0546AA1A74
:100A500061EB0300E117A21A814105D200F093FB7C
:100A6000024A03C200F062FD70BD00005800002081
:100A700010B5014600228E48007807285DD2DFE8D5
:100A800000F0040C161E2B444F00AA2904D18848FC
:100A90000078401C864B187053E0012905D184482A
:100AA0000078401C824B187000E053E049E0814818
:100AB000C1707F480078401C7D4B187041E032299E
:100AC00000DD47E07B4801717B4801707848007881
:100AD000401C774B187034E07748007828B9744888
:100AE0000078401C724B18700EE074480378007850
:100AF000401C724C20706F48401DC1546E480078F5
:100B0000401E6D4B18701CE000BF6D48007881429C
:100B100005D167480078401C654B187011E019E05A
:100B20000D2909D10020624B1870644B1870644B7A
:100B300018706048C07810BD0CE000205C4B187045
:100B400000BF00BF5E48007848405D4B18705848B1
:100B50000078F0E756480078D030C2B20020544BFD
:100B60001870574B1870554B18701046E3E710B5C6
:100B700004462046FFF77CFF52490870084600787B
:100B8000502824D008DC10280DD0302813D031286C
:100B900015D032282BD116E051281CD052281ED057
:100BA000532824D11FE047484078022802D0022071
:100BB000444948701CE002214248817018E002213B
:100BC0004048C17014E002213E48017110E002214A
:100BD0003C4841710CE002213A48817108E0022151
:100BE0003848C17104E002213648017200E010BDAE
:100BF00000BF00BFFBE72DE9F0419AB007460E4663
:100C000090460024AA222146641C01A842540122D5
:100C10002146641C42542146641C00F80180214690
:100C2000641C4654002507E07A5D2046611CCCB266
:100C300001A90A54681CC5B2B542F5DB002508E0DD
:100C400001A8405D2049097848401F490870681C88
:100C5000C5B2A542F4DB1C4802782046611CCCB228
:100C600001A90A540D222046611CCCB201A90A54E4
:100C7000002015490870224601A9144800F028FDFB
:100C80001AB0BDE8F08110B50A480E49C8600020CE
:100C9000487000210B488170C170017141718171F0
:100CA000C1710B4800F002FD012010BD05487047DE
:100CB00060000020C40100206200002061000020CC
:100CC00063000020FC01002064000020004400407C
:100CD0006F0B000800B59BB00121A04801F006FE93
:100CE0000121880201F05CFE0520199003208DF897
:100CF000680000208DF86B0019A9994801F058FB95
:100D00000F20199003208DF8680000208DF86B00EB
:100D100019A9944801F04CFB4FF080600090924874
:100D20000190924802900020039006200490002039
:100D300005904FF480600690400007908000089076
:100D40004011099040020A9000200B9001200C9065
:100D500000200D900E906946854801F071F901213F
:100D6000834801F0A7F90020159018904FF48030C7
:100D700016908010179015A800F0C8FE00200F9064
:100D800001208DF840008DF8410000201190139053
:100D900006208DF850000FA973484C3800F087FEEC
:100DA00007230122002170484C3800F006FF07237A
:100DB000022211466C484C3800F0FFFE0723032244
:100DC0000A2169484C3800F0F8FE072304220B2161
:100DD00065484C3800F0F1FE072305220C216248DB
:100DE0004C3800F0EAFE072306220D215E484C38FD
:100DF00000F0E3FE01215C484C3800F089FF01213E
:100E000059484C3800F079FF012157484C3800F020
:100E100094FE1BB000BD00B59BB001214F48401DA2
:100E200001F064FD0121080201F0BAFDEA201990E9
:100E300003208DF8680000208DF86B0019A9484840
:100E400001F0B6FA002000904A48019047480C3063
:100E500002900020039005200490002005904FF49C
:100E60008060069040000790800008904011099033
:100E700000020A9000200B9001200C9000200D90A1
:100E80000E9069463A48183801F0DAF801213848DE
:100E9000183801F00FF90020159018904FF48030A9
:100EA00016908010179015A800F030FE00200F90CB
:100EB00001208DF840008DF8410000201190139022
:100EC00005208DF850000FA92A484C3800F0EFFD9E
:100ED00007230122114627484C3800F06EFE0723F5
:100EE0000222032123484C3800F067FE0723032227
:100EF000052120484C3800F060FE0723042206211B
:100F00001C484C3800F059FE0723052219461948A1
:100F10004C3800F052FE012116484C3800F0F8FE23
:100F2000012114484C3800F0E8FE012111484C38EA
:100F300000F003FE1BB000BD10B50E484C3800F0A9
:100F400098FE0A480C3010BD10B507484C3800F028
:100F500090FE064810BD05487047000001004000A3
:100F600000000240000802404C2201400C02002018
:100F7000286402404C20014000B587B001210220C6
:100F800001F0B4FC0121880301F0F9FC4FF460404A
:100F9000059002208DF8180000208DF81A0003201B
:100FA0008DF8190001208DF81B0005A9574801F0A4
:100FB000FFF905220D21554801F085FA05220E2181
:100FC000524801F080FA05220F21504801F07BFAC7
:100FD0000121880301F028FD00214FF4804001F039
:100FE00023FD0020ADF800004FF48270ADF8020040
:100FF0004FF40060ADF804000220ADF806000120B7
:10100000ADF808004002ADF80A001020ADF80C0061
:101010000020ADF80E000720ADF8100069463C48EE
:1010200001F004FE01213A4801F0FAFE07B000BDCC
:101030001CB50121102001F059FC4FF40060009014
:1010400001208DF8040000208DF8060002208DF8A4
:10105000050001208DF8070069462E4801F0A8F927
:101060001CBD10B5FFF7E4FFFFF786FF10BD70B59C
:1010700004464FF40061274801F018FA00BF02212E
:10108000234801F097FF0028F9D02146204801F0BD
:1010900048FF00BF01211E4801F08CFF0028F9D055
:1010A0001B4801F03BFF05464FF40061194801F071
:1010B000FBF9284670BD10B50020FFF7D8FF4FF4AC
:1010C0000060FFF7D4FF144908804FF48050FFF709
:1010D000CEFF114948804FF4C050FFF7C8FF0E49BA
:1010E00088804FF40050FFF7C2FF0B49C8804FF4CF
:1010F0002050FFF7BCFF084908810020FFF7B7FF29
:1011000005494881084610BD034870470004024065
:1011100000380040001002402C0200207FB56846D5
:1011200001F013FB4FF47A720198B0FBF2F1481E04
:10113000B0F1807F00D31BE0481E4FF0E0225061E9
:1011400050170F22002807DA13071D0E104B00F06E
:101150000F04241F1D5503E013071C0E0D4B1C54D8
:1011600000BF00204FF0E02290610720106100BF17
:101170007FBD0948036840685A1C40F100000649D9
:101180000A60486070470449086849687047000071
:1011900018ED00E000E400E0680000201FB5012128
:1011A000084601F0ECFB0121082001F0E8FB4FF4B8
:1011B0007A7002904FF45270ADF804000020ADF840
:1011C0000600ADF80C0001A94FF0804001F0CFFF00
:1011D00001221146900702F06BFC0121880702F002
:1011E0004FF81C208DF8000003208DF801008DF8C9
:1011F000020001208DF80300684600F0E2FB1FBDED
:1012000030B58BB004460D460121022001F0B7FB3A
:101210000121042001F0B3FB0121042001F066FB51
:101220000121082001F062FB02220621AB4801F0F7
:101230004AF902220721A94801F045F902220821B2
:10124000A64801F040F902220921A44801F03BF927
:1012500002220C21A24801F036F902220D21A048F9
:1012600001F031F94FF47070099002208DF82800D8
:1012700003208DF8290000208DF82A0001208DF828
:101280002B0009A9954801F093F84FF440500990BC
:1012900009A9934801F08CF80C20ADF81800002043
:1012A000ADF81A0040F2D31007900020ADF82000EE
:1012B00006A98C4801F05BFF06A98B4801F057FF97
:1012C0006020ADF804000120ADF806000220ADF862
:1012D00010000020039001A9824801F0DDFF0821E1
:1012E000804802F066F901A97E4802F00EF8082154
:1012F0007C4802F067F901A97A4802F053F8082106
:10130000784802F06CF901A9764802F0B1F808219A
:10131000744802F06DF901A9734801F0BDFF08217E
:10132000714802F046F901A96F4801F0EEFF08216B
:101330006D4802F047F901216A4801F083FF01215D
:10134000694801F07FFFEA2066493C3108600121CD
:10135000644801F095FF0121634801F091FF0BB053
:1013600030BD1CB50121102001F0C0FA012102207E
:1013700001F0BCFA0121082001F0B8FA40F2036044
:10138000009001208DF8040000208DF80600032055
:101390008DF8050001208DF807006946534801F0DB
:1013A00007F84FF44F40009001208DF80400002012
:1013B0008DF8060003208DF8050001208DF8070048
:1013C0006946474800F0F4FF4FF440700090012058
:1013D0008DF8040000208DF8060003208DF805002C
:1013E00001208DF807006946414800F0E1FF1CBD6F
:1013F00070B504460D46062C22D2DFE804F003083F
:101400000D12171C2946384802F09FF819E02946AA
:10141000344802F09AF814E02946324802F097F86E
:101420000FE029462F4802F094F80AE029462E489A
:1014300002F08DF805E029462A4802F08CF800E019
:1014400000BF00BF70BD70B504460D4625B1012D2B
:1014500013D0022D33D121E0264A32F81410264A47
:1014600052F8240001F020F8244A32F81410224ADD
:1014700052F8240001F01AF822E01E4A32F8141043
:101480001D4A52F8240001F011F81C4A32F81410D9
:10149000194A52F8240001F007F811E0154A32F811
:1014A0001410154A52F8240001F000F8134A32F8DB
:1014B0001410114A52F8240000F0F8FF00E000BFB9
:1014C00000BF70BD10B50121880702F008FB01289C
:1014D00003D10121800702F013FB10BD0008024078
:1014E000000C0240000400400008004000100240D0
:1014F00000040240880000207000002094000020BA
:101500001CB50121082001F0F1F980200090012094
:101510008DF8040000208DF806008DF805008DF888
:1015200007006946044800F043FF1CBD10B5802148
:10153000014800F0C4FF10BD000C024010B588B097
:1015400004460121102001F02BFA0121084601F088
:10155000CDF907220921774800F0B5FF07220A21BB
:10156000744800F0B0FF02208DF81C0000208DF8B8
:101570001E0002208DF81D0001208DF81F00400282
:10158000069006A96B4800F013FF4FF480600690A8
:1015900006A9684800F00CFF02940020ADF8140082
:1015A0000C20ADF812000020ADF81000ADF80E00D0
:1015B000ADF80C0002A9604802F0E5FB25208DF88B
:1015C000040001208DF8070000208DF8050002209E
:1015D0008DF8060001A800F0F4F9012240F225512F
:1015E000554802F00EFD0121534802F054FC08B0AA
:1015F00010BD10B588B004460121480401F0BFF9C0
:101600000121082001F072F9072211464B4800F031
:101610005AFF02208DF81C0000208DF81E000320C8
:101620008DF81D0001208DF81F002020069006A9CE
:10163000424800F0BDFE4020069006A93F4800F059
:10164000B7FE02940020ADF814000C20ADF8120093
:101650000020ADF81000ADF80E00ADF80C0002A9A6
:10166000374802F090FB0121354802F014FC0122BA
:1016700040F22551324802F0C4FC26208DF80400C7
:1016800001208DF807008DF805008DF8060001A8EF
:1016900000F097F908B010BD10B54FF4E130FFF736
:1016A0004DFF4FF4E130FFF7A4FF10BD254908605E
:1016B000704770B504460D462946204602F016FCD8
:1016C00000BF4021204602F0C1FC0128F9D170BDC5
:1016D00070B506460C46154604E014F8011B30466A
:1016E000FFF7E7FF281EA5F101018DB2F5D170BD0E
:1016F00010B540F22551104802F0BEFC20B10E4852
:1017000002F0F8FBC4B200BF10BD10B540F2255185
:101710000B4802F0B1FC58B1094802F0EBFBC4B22F
:101720000848006818B1204606490968884700BF84
:1017300010BD00000000024000100140000C0240FB
:1017400000440040A0000020704700BFFEE700BF3B
:10175000FEE700BFFEE700BFFEE770477047704737
:1017600010B5FFF706FD10BD0CB5002001900090EC
:101770007648006840F480307449086000BF7348C0
:10178000006800F4003000900198401C019000981F
:1017900018B90198B0F5A04FF1D16C48006800F479
:1017A000003010B10120009001E00020009000986E
:1017B000012846D165484030006840F080506349B8
:1017C000403108606248006840F440406049086069
:1017D0005E48083000685D490831086008460068C6
:1017E00040F4004008600846006840F4A0500860DB
:1017F0005848091F0860081F006840F08070091FE2
:10180000086000BF5148006800F000700028F9D05F
:1018100040F20570504908604C480830006820F0DC
:1018200003004A49083108600846006840F0020099
:10183000086000BF45480830006800F00C00082828
:10184000F8D10CBD10B54548006840F4700043491C
:1018500008603E48006840F001003C4908600020F4
:101860003A4908310860394800683D49084037491D
:1018700008603C48091D0860081F006820F48020AB
:10188000091F0860002031490C310860FFF76CFF28
:101890004FF0006031498039086010BD70B50020FC
:1018A0000022022300240221284D08352D6805F06E
:1018B0000C0020B1042806D0082834D107E02A4DB6
:1018C0002A4E356033E02A4D284E35602FE01F4DFB
:1018D0002D1D2D68C5F380541C4D2D1D2D6805F060
:1018E0003F0154B1224DB5FBF1F5184E361D366857
:1018F000C6F3881605FB06F209E01B4DB5FBF1F5B2
:10190000124E361D3668C6F3881605FB06F20F4DDB
:101910002D1D2D68C5F301456D1C6B00B2FBF3F561
:10192000124E356003E0104D104E356000BF00BF11
:10193000064D08352D68C5F303150E4E705D0B4D31
:101940002D68C540094E356070BD0000003802406A
:101950000070004008544007003C024088ED00E061
:10196000FFFFF6FE103000240024F400A400002045
:1019700000127A00A8000020094880470948004763
:10198000FEE7FEE7FEE7FEE7FEE7FEE7FEE7FEE72F
:10199000FEE7FEE704480549054A064B704700008C
:1019A0004518000889010008A0020020A0080020B6
:1019B000A0040020A004002032490143324A1160F3
:1019C000704770B5002100230F22C4781CB32E4C41
:1019D000246804F4E064C4F5E064C4F30721C1F1B1
:1019E0000404E3B20A4144789C40E1B28478144094
:1019F00021430C07210E254C05786155047804F02D
:101A00001F050124AC4005786D11AD0005F1E025FE
:101A1000C5F8004109E0047804F01F050124AC403A
:101A20001B4D0678761145F8264070BD194A0A40CC
:101A30000243154B1B1F1A60704739B1124A121D21
:101A400012680243104B1B1D1A6006E00E4A121D5D
:101A5000126882430C4B1B1D1A607047042808D182
:101A60004FF0E021096941F004014FF0E0221161DB
:101A700007E04FF0E021096921F004014FF0E02276
:101A8000116170470000FA050CED00E000E400E091
:101A900080E100E080FFFF1F10B50121080200F087
:101AA000D4FF00214FF4807000F0CFFF10BD30B59F
:101AB0000246002000235068F84C20400D790C6845
:101AC00044EA0524204350609068F54C2040D1E959
:101AD00003542C438D682C434D7944EA450420433C
:101AE0009060D06A20F470000C7D641EE4B2234341
:101AF00040EA0350D06230BD0021016001714171A4
:101B00008160C16001610121017570470021E54AD2
:101B10001168E54A1140D0E900231A4383681A434B
:101B2000C3681A431143E14AC2F804137047002105
:101B3000016041608160C160704721B1826842F0FC
:101B40000102826003E0826822F001028260704735
:101B50000A4600214168D64B194011434160704745
:101B60004162826270470A460021416821F01F01EC
:101B700011434160704738B1CA49096841F4000116
:101B8000CA4AC2F8041306E0C649096821F40001F4
:101B9000C64AC2F80413704738B1C249096841F413
:101BA0008001C24AC2F8041306E0BE49096821F464
:101BB0008001BE4AC2F804137047F0B504460D46D2
:101BC00000200021092D11DDE068A5F10A0606EBD1
:101BD0004607072606FA07F18843A5F10A0606EB31
:101BE000460603FA06F10843E0600CE0206905EBC5
:101BF0004507072606FA07F1884305EB450603FA71
:101C000006F108432061072A0FDA606B561E06EBC7
:101C100086071F2606FA07F18843561E06EB86063E
:101C200005FA06F10843606322E00D2A0FDA206B03
:101C3000D61F06EB86071F2606FA07F18843D61F34
:101C400006EB860605FA06F10843206310E0E06A19
:101C5000A2F10D0606EB86071F2606FA07F1884358
:101C6000A2F10D0606EB860605FA06F10843E062CE
:101C7000F0BD816841F080418160704701460020DD
:101C80008A6802F080420AB1012000E0002070471B
:101C900021B1826842F48062826003E0826822F4AB
:101CA00080628260704721B1826842F002028260E5
:101CB00003E0826822F002028260704710B50A4693
:101CC00000210023416821F46041531E41EA433161
:101CD000416010BD21B1426842F40062426003E0FD
:101CE000426822F40062426070470146C86C80B2CC
:101CF00070476C48001D0068704721B1826842F44B
:101D00008072826003E0826822F480728260704791
:101D100021B1826842F40072826003E0826822F49A
:101D200000728260704738B15E49096841F4005121
:101D30005E4AC2F8041306E05A49096821F40051CA
:101D40005A4AC2F804137047F0B5044615460020FD
:101D500000220026092911DDE068A1F10A0707EB3E
:101D6000470C072707FA0CF29043A1F10A0707EB8B
:101D7000470703FA07F21043E0600CE0206901EB2B
:101D8000410C072707FA0CF2904301EB410703FAD5
:101D900007F210432061A06BC0F30156EF1C06F15F
:101DA000010CA7EB0C0707EB870C1F2707FA0CF2B7
:101DB0009043EF1C06F1010CA7EB0C0707EB87071C
:101DC00001FA07F21043A063F0BD10B50A460021E6
:101DD0000023816B21F44011531E41EA03518163BA
:101DE00010BD08B5002300930090009B0B440093A6
:101DF000009B1A6008BD0A460021816821F4702109
:101E00001143816070470A460021816821F4401126
:101E1000114381607047816841F48001816070479F
:101E2000014600208A6802F480020AB1012000E025
:101E30000020704721B1426842F48062426003E0B2
:101E4000426822F480624260704721B1426842F4E5
:101E50008052426003E0426822F480524260704740
:101E600008B5024600200090009201F12800009B76
:101E7000184400900098006880B208BD10B50B4669
:101E80000021D9B2012404FA01F11AB144680C43CB
:101E9000446002E044688C43446010BDFFFEFFFCD8
:101EA000FDF7FFC004230140E030FCFF00200140AB
:101EB000FFFD3FFF0246002013680B400BB10120DD
:101EC00000E000207047CA430260704770B50246C8
:101ED0000020002300240B12556801268E4005EADD
:101EE000060415681D4015B10CB1012000E000206A
:101EF00070BD00220A12D34303607047016821F0CD
:101F0000010101600021016041608160C1600161E7
:101F100021214161DB49884204D13D21D94A103A4F
:101F200091608CE0D7491831884205D14FF4746133
:101F3000D44A103A916082E0D2493031884205D1CA
:101F40004FF47411CF4A103A916078E0CD4948318E
:101F5000884205D14FF07461CA4A103A91606EE030
:101F6000C8496031884204D1C749C64A103AD16095
:101F700065E0C4497831884204D1C449C14A103A65
:101F8000D1605CE0BF499031884204D1C049BD4A6C
:101F9000103AD16053E0BB49A831884205D14FF0D7
:101FA0003D51B84A103AD16049E0BA49884204D15B
:101FB0003D21B84A083A116041E0B64918318842DB
:101FC00005D14FF47461B34A083A116037E0B14962
:101FD0003031884205D14FF47411AE4A083A11608D
:101FE0002DE0AC494831884205D14FF07461A94ACF
:101FF000083A116023E0A7496031884204D1A24920
:10200000A44A121F11601AE0A2497831884204D113
:102010009E49A04A121F116011E09E4990318842EA
:1020200004D19B499B4A121F116008E09949A831CD
:10203000884204D14FF03D51964A121F11607047FB
:1020400010B500220268944B1A40CC680B682343F9
:102050004C6923438C692343CC6923430C6A234393
:102060004C6A23438C6A23434C6B23438C6B23437E
:102070001A430260426922F00702D1E90B3423437C
:102080001A4342610B6943604B6883608B68C3608D
:1020900010BD0021016041608160C160016141614A
:1020A0008161C161016241628162C1620163416318
:1020B0008163704721B1026842F00102026003E0CF
:1020C000026822F001020260704721B1026842F406
:1020D0000042026003E0026822F40042026070479E
:1020E00021B1026842F02002026003E0026822F09F
:1020F000200202607047416070470146486880B224
:10210000704722B1036843F40023036003E00368CF
:1021100023F4002303600161704721B1026842F497
:102120008022026003E0026822F48022026070478D
:102130000AB1016100E0C1607047014600200A68F1
:1021400002F400220AB1012000E00020704701469D
:1021500000200A6802F001020AB1012000E000201C
:102160007047014600204A6902F03800704730B5D8
:1021700003460A4600200024464DAB4202D24149A4
:10218000103901E04349103902F000550DB14C6897
:1021900000E00C68414D2C4004EA02050DB101201D
:1021A00000E0002030BD02463A4B9A4202D2354848
:1021B000103801E03748103801F000531BB1374B9D
:1021C0000B40C36002E0354B0B408360704710B595
:1021D00001F080034BB122B1436943F080034361B6
:1021E00003E0436923F08003436180290BD02AB1C7
:1021F000036801F01E042343036004E0036801F058
:102200001E04A343036010BD70B5024600200024E5
:102210000025204EB24202D21A4B103B01E01D4B6A
:10222000103B1F4E0E4036B11E2606EAD12416681A
:1022300006EA040502E0566906F0800501F0005642
:102240000EB15C6800E01C68144E344004EA0106DC
:1022500016B10DB1012000E0002070BD02460D4B0B
:102260009A4202D20748103801E00A48103801F0BB
:1022700000531BB1094B0B40C36002E0074B0B40FE
:1022800083607047106002403D000020400F002036
:1022900000003D20106402403F801CF07D0F7D0F48
:1022A0003C0F3C0F10B504469848844208D10121E8
:1022B000084600F086FB0021012000F082FB76E05A
:1022C0009348844208D10121022000F07AFB0021CA
:1022D000022000F076FB6AE08E48844208D101219A
:1022E000042000F06EFB0021042000F06AFB5EE099
:1022F0008948844208D10121082000F062FB0021B6
:10230000082000F05EFB52E08448844208D101219D
:10231000102000F056FB0021102000F052FB46E098
:102320007F48844208D10121202000F04AFB00218F
:10233000202000F046FB3AE07A48844208D101218F
:10234000402000F03EFB0021402000F03AFB2EE050
:102350007548844208D10121802000F032FB002121
:10236000802000F02EFB22E07048844208D1012139
:10237000801500F026FB0021A01500F022FB16E0DE
:102380006B48844208D10121401500F01AFB00215E
:10239000601500F016FB0AE06648844207D101216F
:1023A000001500F00EFB0021201500F00AFB10BD07
:1023B000F0B50A4600210023002400BF3DE00125BE
:1023C00005FA01F3156805EA03049C4234D1056857
:1023D0004F000326BE40B543056015794E00B54059
:1023E0000668354305601579012D02D01579022D57
:1023F00016D185684F000326BE40B54385605579E8
:102400004E00B540866835438560456801268E409C
:10241000B5434560456896798E40B6B23543456010
:10242000C5684F000326BE40B543C560D5794E0050
:10243000B540C6683543C560491C1029BFD3F0BDFF
:102440004FF6FF7101600021017141718171C1710D
:10245000704708B54FF480320092009A0A43009208
:10246000009AC261C161009AC261C2690092C269E8
:10247000009208BD0246002013690B400BB10120F9
:1024800000E0002070470146086980B270470246AC
:10249000002053690B400BB1012000E00020704781
:1024A0000146486980B27047018370474183704795
:1024B0000AB1018300E0418370474161704742697E
:1024C0004A4042617047F0B5002300244D07ED0EED
:1024D00002FA05F3CE1000F1200555F826504E07FC
:1024E000F70E0F26BE40B543CF1000F1200646F888
:1024F0002750CE1000F1200555F8265045EA030478
:10250000CE1000F1200545F82640F0BD0000024045
:102510000004024000080240000C0240001002408B
:102520000014024000180240001C0240002002403B
:102530000024024000280240F948006840F00100F1
:10254000F74908600020F64908310860F44800683F
:10255000F4490840F2490860F348091D0860F3484F
:10256000EF4984310860F0481038091D0860EC48D4
:10257000006820F48020EA4908600020E8490C3116
:102580000860E7498C31086070470021E44A921CDA
:10259000117011460870704710B5014600220023E3
:1025A00000204A11012A02D1DD4C236808E0022AEA
:1025B00003D1DB4C7034236802E0D94C74342368B7
:1025C00001F01F02012494401C400CB1012000E0E6
:1025D000002010BD38B5002000900024002500BF69
:1025E0003120FFF7D9FF05460098401C0090009865
:1025F000B0F5A04F01D0002DF2D03120FFF7CCFF75
:1026000008B1012400E00024204638BD0146002026
:10261000C34A106820F0F80040EAC100106070471B
:10262000C349086070470021BD4A703211701170B3
:10263000012802D004280AD104E00121B84A7032EE
:10264000117005E00521B64A7032117000E000BF3C
:1026500000BF7047B7490860704770B5049C41EAF5
:1026600082150126C6EB530645EA0645054345EAB1
:102670000465AB4E361D356070BDAD4908667047C8
:10268000820142EA0172A64B84331A607047A8495E
:102690008866704710B5830143EA016343EA027319
:1026A0009F4C8834236010BDA14908677047A0493A
:1026B000C864704702460020994B0833186820F020
:1026C000EC6042EA01031843954B083318607047E9
:1026D00002460020924B0833186820F0784042EA06
:1026E000010318438E4B08331860704701460020E1
:1026F0008B4A0832106820F00300084310607047CE
:1027000087480830006800F00C0070470146002040
:10271000834A0832106820F0F000084310607047C8
:10272000014600207E4A0832106820F4E050084339
:102730001060704701460020794A0832106820F482
:10274000604040EAC10010607047F0B500210022EF
:102750000024022500260223714F08373F6807F046
:102760000C0121B1042905D0082937D105E0724FA9
:10277000076036E0714F076033E0694F3F1D3F68E7
:10278000C7F38056664F3F1D3F6807F03F036EB1A9
:102790006A4FB7FBF3F7DFF888C10CF1040CDCF8E3
:1027A00000C0CCF3881C07FB0CF40CE0624FB7FBB5
:1027B000F3F7DFF86CC10CF1040CDCF800C0CCF3CB
:1027C000881C07FB0CF4564F3F1D3F68C7F30147B9
:1027D0007F1C7D00B4FBF5F7076002E0564F0760F1
:1027E00000BF00BF4E4F08373F6807F0F0010909EE
:1027F000534F7A5C0768D7404760494F08373F68B6
:1028000007F4E051890A4E4F7A5C4768D7408760E9
:10281000434F08373F6807F46041490B484F7A5CE3
:102820004768D740C760F0BD002100F44072B2F5A0
:10283000407F0AD13A4A0832116821F4F811414A1E
:1028400002401143364A08321160354A703212682C
:10285000C0F30B031A43324B70331A60704735498B
:102860004439086070473349403908607047364939
:102870000860704701460020294A8C32106820F019
:102880001F004A1E1043264A8C32106070470146D2
:102890000020234A8C32106820F4F8504A1E40EA87
:1028A00002201F4A8C3210607047014600201C4AEB
:1028B0008C32106820F440100843106070470146C5
:1028C0000020174A8C32106820F440000843106042
:1028D000704701460020124A8C32106820F44030C4
:1028E00008431060704719490860704739B10C4AB5
:1028F0003032126802430A4B30331A6006E0084A4D
:10290000303212688243064B30331A607047F9B197
:10291000034A343212680243014B34331A601CE01C
:1029200000380240FFFFF6EA10300024003000209B
:1029300000004742800E47420024F40000127A0053
:10294000B8000020FFFCFF0F5C014742E011474246
:102950008F4A126882438E4B1A60704739B18C4A95
:10296000121D126802438A4B1B1D1A6006E0884A3A
:10297000121D12688243864B1B1D1A60704739B1C5
:10298000834A0C3212680243814B0C331A6006E012
:102990007F4A0C32126882437D4B0C331A607047B9
:1029A00039B17B4A103212680243794B10331A60F6
:1029B00006E0774A103212688243754B10331A6072
:1029C000704739B1724A243A12680243704B243B73
:1029D0001A6006E06E4A243A126882436C4B243B2C
:1029E0001A60704739B16A4A203A12680243684B4C
:1029F000203B1A6006E0664A203A12688243644B24
:102A0000203B1A60704739B1614A1C3A1268024390
:102A10005F4B1C3B1A6006E05D4A1C3A1268824319
:102A20005B4B1C3B1A60704739B1594A143A126823
:102A30000243574B143B1A6006E0554A143A126899
:102A40008243534B143B1A60704739B1504A103AD5
:102A5000126802434E4B103B1A6006E04C4A103A93
:102A6000126882434A4B103B1A60704739B1484A9A
:102A70001C3212680243464B1C331A6006E0444A7B
:102A80001C3212688243424B1C331A60704739B1C2
:102A90003F4A2032126802433D4B20331A6006E061
:102AA0003B4A203212688243394B20331A60704708
:102AB00039B1374A243212680243354B24331A6045
:102AC00006E0334A243212688243314B24331A60C1
:102AD000704739B12E4A2C32126802432C4B2C33EA
:102AE0001A6006E02A4A2C3212688243284B2C33A3
:102AF0001A60704739B1264A303212680243244BBB
:102B000030331A6006E0224A303212688243204B8A
:102B100030331A607047012808D11D493C310968DB
:102B200041F008011A4A3C32116007E018493C3173
:102B3000096821F00801164A3C321160704739B12A
:102B4000134A273A12780243114B273B1A7006E0CA
:102B50000F4A273A127882430D4B273B1A70704771
:102B60000B484030006840F08070094940310860EF
:102B7000704701460020064A283A12680A400AB106
:102B8000012000E000207047014926390870704795
:102B90003438024010B50446FB48844208D1012174
:102BA0008014FFF752FF0021A014FFF74EFF3CE016
:102BB000F648844208D101210014FFF735FF0021B7
:102BC0002014FFF731FF30E0F148844208D10121A1
:102BD000C013FFF729FF0021E013FFF725FF24E0D2
:102BE000EC48844208D101214014FFF72EFF002158
:102BF0006014FFF72AFF18E0E748844209D1012159
:102C00000805FFF722FF00214FF48010FFF71DFF9A
:102C10000BE0E248844208D101214805FFF715FF87
:102C200000214FF40010FFF710FF10BD10B5002277
:102C3000028802F441520B884C8823438C8823433A
:102C4000CC8823430C8923434C8923438C89234319
:102C5000CC8923431A430280838B4FF2FF742340B5
:102C600083830B8A038210BD2DE9F04F00250223D8
:102C700000244FF0010900220026002794469046C8
:102C8000B0F81CA04FF2400B0AEA0B0AA0F81CA0F7
:102C90004FF0020AA0F820A0858BD1F808A0BAF165
:102CA000020F01D100BF82E0B1F804A0BAF1000F19
:102CB00002D14FF0010901E04FF00209DFF8E0A274
:102CC000DAF800A00AF4000ABAF1000F09D0DFF820
:102CD000D0A2DAF800A02AF4000ADFF8C4B2CBF8D8
:102CE00000A0DFF8BCA20AF17C0ADAF800A0CAF35F
:102CF000881CDFF8ACA20AF17C0ADAF800A0CAF35B
:102D00000278DFF89CA2AAF1040ADAF800A00AF01F
:102D10003F07DFF88CA2AAF1040ADAF800A00AF44F
:102D2000800ABAF5800F08D1DFF878A2BAFBF7FA6B
:102D30000AFB0CFABAFBF8F607E0DFF86CA2BAFB64
:102D4000F7FA0AFB0CFABAFBF8F6B1F806A0BAF5E6
:102D5000007F0ED14FEA162A0AEB8A0A4FEA4A0A86
:102D6000D1F808B0BAFBFBFA0AF1050A1FFA8AF299
:102D70000FE04FEA491AB6FBFAFA0AEB8A0A4FEA61
:102D80004A0AD1F808B0BAFBFBFA0AF1050A1FFAA1
:102D90008AF24FF00A0AB2FBFAF202F00104A2EB47
:102DA000040ACAF34F034FF6FF7A0AEA0424022BFF
:102DB00001DBFF2B01DD02230024B1F806A04AEA63
:102DC000040A4AEA030AA0F820A0B1F804A0B1F866
:102DD0000CB04AEA0B0AB1F802B04AEA0B0AB1F8A1
:102DE00000B04AEA0B0A4AF4006A4AEA05058583FC
:102DF000BDE8F08F0021018041808180C180018188
:102E000041818181C18107210182704700210180B8
:102E100041808180C18002218160002181817047D1
:102E200021B1028842F04002028004E002884FF69D
:102E3000BF731A400280704721B1828B42F48062D6
:102E4000828304E0828B4FF6FF331A4082837047FF
:102E500002884FF2FF731A40028002880A43028000
:102E60007047B1F5804F04D1028842F4804202805D
:102E700004E002884BF6FF731A40028070474FF659
:102E8000FF62914204D0028842F48072028004E022
:102E900002884FF6FF631A400280704721B1828892
:102EA00042F00402828004E082884FF6FB731A40ED
:102EB0008280704721B1828842F01002828004E053
:102EC00082884FF6EF731A408280704730B5002237
:102ED0000023848B4FF240052C4084830224048419
:102EE000828B0C88B4F5007F01D00C8814B94FF4A4
:102EF000807308E00C88B4F5407F03D00C88B4F5EB
:102F0000807F00D100238C888D892C434D882C43F1
:102F10001C4344F400642243828330BD0146888907
:102F200070478181704721B1028842F400520280CB
:102F300004E002884DF6FF731A4002807047018852
:102F400041F480510180704702460020012901D0E0
:102F5000108B00E0908A70470146088A70471AB1CA
:102F600083880B43838002E083888B438380704790
:102F700030B5002400230C110125A540ABB2AAB145
:102F800085881D43858014E00030014000380040F2
:102F9000003C00400034014000500140005401401A
:102FA0000838024000127A000024F40085889D430E
:102FB000858030BD0246002013890B400BB10120F3
:102FC00000E000207047CA4302817047F0B5024616
:102FD000002000240023002501F00F070126BE4039
:102FE000B4B20B1101269E40B3B2968806EA0305DF
:102FF0001689264016B10DB1012000E00020F0BD79
:1030000010B5002201F00F040123A3409AB2D3436C
:10301000038110BD10B50446FE48844208D1012149
:103020000846FFF712FD00210120FFF70EFD9DE08D
:10303000B4F1804F08D101210846FFF7F5FC0021CB
:103040000120FFF7F1FC91E0F348844208D101210F
:103050000220FFF7E9FC00210220FFF7E5FC85E0F4
:10306000EE48844208D101210420FFF7DDFC002155
:103070000420FFF7D9FC79E0E948844208D1012116
:103080000820FFF7D1FC00210820FFF7CDFC6DE000
:10309000E448844208D101211020FFF7C5FC00213B
:1030A0001020FFF7C1FC61E0DF48844208D1012114
:1030B0002020FFF7B9FC00212020FFF7B5FC55E0E8
:1030C000DA48844208D101210220FFF7BEFC00212A
:1030D0000220FFF7BAFC49E0D548844209D101211A
:1030E0000804FFF7B2FC00214FF48030FFF7ADFC7D
:1030F0003CE0D048844209D101214804FFF7A5FCF7
:1031000000214FF40030FFF7A0FC2FE0CA488442B2
:1031100009D101218804FFF798FC00214FF4802099
:10312000FFF793FC22E0C548844208D101214020EA
:10313000FFF77AFC00214020FFF776FC16E0C0483C
:10314000844208D101218020FFF76EFC00218020FD
:10315000FFF76AFC0AE0BB48844207D101218015D1
:10316000FFF762FC0021A015FFF75EFC10BD0022F6
:103170000288A84B98420ED0AC4B98420BD0B0F1CD
:10318000804F08D0A44B984205D0A44B984202D05F
:10319000A34B984204D14FF68F731A404B881A43C1
:1031A000A04B984207D0A04B984204D04FF6FF4363
:1031B0001A400B891A4302804B68C3620B8803854F
:1031C000944B984202D0994B984201D18B7A038656
:1031D0000123838270474FF0FF314160002101805D
:1031E00001814180817270470185828270470A4661
:1031F000002101884FF68F731940114301807047F9
:1032000041627047C16270470146486A7047014693
:10321000088D704721B1028842F00202028004E06A
:1032200002884FF6FD731A400280704721B1028870
:1032300042F00402028004E002884FF6FB731A4059
:103240000280704721B1028842F08002028004E0CF
:1032500002884FF67F731A400280704702884FF64B
:10326000F7731A40028002880A430280704702887E
:103270004FF6FF431A40028002880A4302807047DB
:1032800021B1028842F00102028004E002884FF678
:10329000FE731A400280704770B50024002200239C
:1032A000058C4FF6FE7635400584028C8388048BAE
:1032B0004FF68F752C40B51E2C400D882C43751E83
:1032C0002A408D892A434D882A43524DA84202D074
:1032D000564DA84213D14FF6F7752A40CD892A439F
:1032E0004FF6FB752A408D882A434FF6FF652B4029
:1032F0004FF6FF552B400D8A2B434D8A2B4383807D
:1033000004838D684563028470BD70B5002400227B
:103310000023058C4FF6EF7635400584028C8388B8
:10332000048B48F6FF752C404FF6FF452C400D8866
:103330004FF6FF7606EA05252C434FF6DF752A4047
:103340008D8906EA05152A434D8806EA05152A43A4
:10335000304DA84202D0354DA8421DD14FF67F75A1
:103360002A40CD894FF6FF7606EA05152A434FF627
:10337000BF752A408D8806EA05152A434FF6FF35AA
:103380002B404FF2FF752B400D8A06EA85052B4333
:103390004D8A06EA85052B43838004838D68856307
:1033A000028470BD70B5002400220023058C4FF606
:1033B000FF6635400584028C8388848B4FF68F75B9
:1033C0002C404FF6FC752C400D882C434FF6FF55D2
:1033D0002A408D894FF6FF7606EA05252A434D8857
:1033E00006EA05252A430B4DA84202D00F4DA842FC
:1033F00038D14FF2FF752A40CD894FF6FF7606EAA5
:1034000005252A434FF6FF352A408D8806EA052513
:103410002A4319E000000140000400400008004079
:10342000000C004000100040001400400004014067
:1034300000400140004401400048014000180040A5
:10344000001C0040002000404EF6FF752B404DF65A
:10345000FF752B400D8A06EA05152B434D8A06EAB7
:1034600005152B43838084838D68C563028470BDFA
:1034700070B5002200230024058C4EF6FF763540FF
:103480000584038C8488828B48F6FF752A404FF6AA
:10349000FF452A400D884FF6FF7606EA05252A43A8
:1034A0004DF6FF752B408D8906EA05352B434D8877
:1034B00006EA05352B43FE4DA84202D0FD4DA84239
:1034C00008D14BF6FF752C400D8A4FF6FF7606EAC1
:1034D00085152C43848082838D680564038470BDC8
:1034E000002101804180818081608181C1810182D0
:1034F0004182704770B503460020002418461830FA
:1035000001258D40ACB21D8CA5431D8409B108294D
:103510000AD100EB610005684FF68F7635400560F3
:103520000568154305600FE00D1FC5F34E052844DF
:10353000056848F6FF763540056005684FF6FF766A
:1035400006EA02263543056070BD4163704781631A
:103550007047C1637047016470470A460021018BC0
:103560004FF68F7319401143018370470A460021BB
:10357000018B48F6FF7319404FF6FF7303EA0223ED
:103580001943018370470A460021818B4FF68F73E0
:1035900019401143818370470A460021818B48F608
:1035A000FF7319404FF6FF7303EA02231943818327
:1035B00070470A460021018B4FF6F77319401143FB
:1035C000018370470A460021018B4FF2FF731940B7
:1035D0004FF6FF7303EA02231943018370470A463B
:1035E0000021818B4FF6F773194011438183704797
:1035F0000A460021818B4FF2FF7319404FF6FF738B
:1036000003EA02231943818370470A460021018B94
:103610004FF6FB7319401143018370470A4600219E
:10362000018B4FF6FF3319404FF6FF7303EA022375
:103630001943018370470A460021818B4FF6FB73C3
:1036400019401143818370470A460021818B4FF650
:10365000FF3319404FF6FF7303EA022319438183B6
:1036600070470A460021018B4FF67F7319401143C2
:10367000018370470A460021018BC1F30E014FF60A
:10368000FF7303EA02231943018370470A460021AE
:10369000818B4FF67F7319401143818370470A462F
:1036A0000021818BC1F30E014FF6FF7303EA022361
:1036B0001943818370470A460021018C4FF6FD7340
:1036C00019401143018470470A460021018C4FF6CE
:1036D000F77319401143018470470A460021018C99
:1036E0004FF6DF7319404FF6FF7303EA02131943D5
:1036F000018470470A460021018C4FF67F73194000
:103700004FF6FF7303EA02131943018470470A4618
:103710000021018C4FF6FF5319404FF6FF7303EA67
:1037200002231943018470470A460021018C4FF29D
:10373000FF7319404FF6FF7303EA02231943018414
:1037400070470A460021018C4DF6FF7319404FF671
:10375000FF7303EA023319430184704730B5002335
:1037600001248C40A3B2048C9C430484048C02FA90
:1037700001F5ADB22C43048430BD30B500230424E0
:103780008C40A3B2048C9C430484048C02FA01F59F
:10379000ADB22C43048430BD828B4FF2FF331A400C
:1037A0008283828B4FF6FF7303EA01231A438283DD
:1037B0007047F0B50C461546002100220026078C04
:1037C0004EF6FF7C07EA0C070784818B028C4FF6CC
:1037D000FF7707EA043640F6FF4739404FF6FF7798
:1037E00007EA052739434FF6FF7707EA03373943DE
:1037F00045F6FF773A4046F480573A438183028486
:10380000F0BD828B4FF6F3731A408283828B0A439A
:1038100082837047F0B50C46154600210022002631
:10382000078C4FF6FF6C07EA0C070784818B028C2C
:103830004FF6FF7707EA04264FF60C7739404FF62C
:10384000FF7707EA03172F4339434FF2FF573A40F8
:1038500046F480773A4381830284F0BD028B4FF2B5
:10386000FF331A400283028B4FF6FF7303EA0123F2
:103870001A4302837047F0B50C461546002100221A
:103880000026078C4FF6EF7C07EA0C070784018BB4
:10389000028C4FF6FF7707EA041640F6FF473940DF
:1038A0004FF6FF7707EA033739434FF6FF7703E018
:1038B000000001400004014007EA052739434FF6A4
:1038C0005F773A4046F010073A4301830284F0BD27
:1038D000028B4FF6F3731A400283028B0A43028372
:1038E0007047F0B50C46154600210022068C4FF6B5
:1038F000FE773E400684018B028C4FF60C763140F9
:103900007E1C06EA03162E4331434FF6F57632400D
:1039100044F00106324301830284F0BD70B50546D0
:103920000C46208850B92389A28861882846FFF771
:10393000D8FFE1882846FFF7CBFF25E02088042840
:103940000AD12389A28861882846FFF794FFE1887D
:103950002846FFF783FF17E0208808280AD123892B
:10396000A28861882846FFF755FFE1882846FFF7BF
:1039700048FF09E02389A28861882846FFF719FFDC
:10398000E1882846FFF708FF70BD002101804180D3
:10399000012181800021C180018170472DE9F04122
:1039A00005460C4600260127608808B9022600E07B
:1039B0000026A088012801D1022700E001272088E5
:1039C000A0B92389A28861882846FFF78AFFE18889
:1039D0002846FFF77DFF23893A4631462846FFF700
:1039E0004AFFE1882846FFF739FF13E02389A288C0
:1039F00061882846FFF73FFFE1882846FFF72EFF42
:103A000023893A4631462846FFF76BFFE18828466E
:103A1000FFF75EFFBDE8F0810146486B7047014645
:103A2000886B70470146C86B70470146086C704749
:103A30000A884B881A438B881A43CB881A430B8910
:103A40001A434B891A438B891A43A0F844207047C4
:103A50000021018041808180C1800181418181817B
:103A6000704731B1B0F8442042F40042A0F844203D
:103A700005E0B0F84420C2F30E02A0F844207047DD
:103A800021B1828842F00402828004E082884FF6ED
:103A9000FB731A408280704721B1828842F0010294
:103AA000828004E082884FF6FE731A40828070475D
:103AB0001AB183890B43838102E083898B4383811D
:103AC00070478182704702460020138A0B400BB179
:103AD000012000E000207047CA430282704730B5E1
:103AE0000246002000230024158A05EA0103958977
:103AF00005EA010413B10CB1012000E0002030BD43
:103B0000CA430282704741EA0203A0F84830704776
:103B10001AB183890B43838102E083898B438381BC
:103B2000704721B1828842F00802828004E08288D6
:103B30004FF6F7731A408280704701894FF6F8728A
:103B40001140018170470A46002101894FF68F73A9
:103B5000194011430181704730B504460D4629468E
:103B60002046FFF7F0FF208940F00700208130BD9C
:103B70002DE9F04104460D4616461F46602D06D13C
:103B80003B46012231462046FFF775FE05E03B46E5
:103B9000012231462046FFF7A4FE29462046FFF7C2
:103BA000D2FF208940F007002081BDE8F08130B5C8
:103BB0000C4600210189C9B24FF6FF7505EA0325BD
:103BC000154325432943018130BD2DE9F0410546C8
:103BD0000E4617469846002443463A463146284644
:103BE000FFF7E5FF2C894FF6F870044044F0070416
:103BF0004FF68F70044044F070042C81BDE8F081D2
:103C0000F0B504460D4616461F463B463246294649
:103C10002046FFF7CCFF208940F480402081F0BD92
:103C200082884FF68F731A40828082880A4382808E
:103C3000704702894FF6F8731A40028102890A43DD
:103C40000281704702894FF67F731A400281028910
:103C50000A4302817047F0B50C4615461E46002106
:103C6000002200230189028B038C4FF6F87739403C
:103C700021434FF6FC473A4040F201173A434FF6D2
:103C8000DD773B404FF6FF7707EA06172F433B43AC
:103C9000018102830384F0BD21B1828842F0800259
:103CA000828004E082884FF67F731A4082807047DA
:103CB000A0F850107047000010B50446FA4884423E
:103CC00008D101211020FEF7C0FE00211020FEF7D0
:103CD000BCFE57E0F548844209D101214804FEF7B3
:103CE000A3FE00214FF40030FEF79EFE4AE0F048AC
:103CF000844209D101218804FEF796FE00214FF489
:103D00008020FEF791FE3DE0EA48844209D101217E
:103D1000C804FEF789FE00214FF40020FEF784FE60
:103D200030E0E548844209D101210805FEF77CFE18
:103D300000214FF48010FEF777FE23E0DF48844235
:103D400008D101212020FEF780FE00212020FEF76F
:103D50007CFE17E0DA48844209D101218807FEF78A
:103D600063FE00214FF08040FEF75EFE0AE0D5487A
:103D7000844207D101214005FEF756FE002160056F
:103D8000FEF752FE10BD2DE9FF4705460E46002402
:103D9000A14600BFA046B08900B100BF2C8A24F420
:103DA0004054F08804432C82AC8941F20C60844377
:103DB000B08831890843718908430443AC81AC8AD7
:103DC00024F44074B0890443AC826846FEF7BDFC1D
:103DD000B548854202D0B948854202D1DDF80C9041
:103DE00001E0DDF80890A88900F4004040B109EB3B
:103DF000C90000EB091031684900B0FBF1F707E09A
:103E000009EBC90000EB091031688900B0FBF1F73C
:103E10006420B7FBF0F004012009642101FB107855
:103E2000A88900F4004040B1322000EBC800B0FB8C
:103E3000F1F000F00700044308E0322000EB081026
:103E40006421B0FBF1F000F00F0004432C81BDE8C9
:103E5000FF874FF41651016000218180C1800181EC
:103E60000C21418100218181704710B5024600205C
:103E7000108A20F470600B884C8823438C8823437D
:103E8000CC8823431843108210BD0021018041805B
:103E90008180C180704721B1828942F400528281C1
:103EA00004E082894DF6FF731A4082817047028BCD
:103EB00002F47F420283028B0A430283704721B1DE
:103EC000828942F40042828103E08289C2F30E02B9
:103ED0008281704721B1828A42F40062828204E0CA
:103EE000828A4FF2FF731A4082827047C1F3080240
:103EF0008280704701468888C0F308007047028AB4
:103F00004FF6F0731A400282028A0A430282704717
:103F100021B1828942F00202828104E082894FF657
:103F2000FD731A408281704782894FF2FF731A40F5
:103F3000828182890A4382817047028A4FF6DF7349
:103F40001A400282028A0A430282704721B1028A21
:103F500042F48042028204E0028A4BF6FF731A4068
:103F600002827047818941F001018181704721B14E
:103F7000828A42F00802828204E0828A4FF6F77356
:103F80001A4082827047028BD2B20283028B42EACD
:103F900001220283704721B1828A42F0200282828C
:103FA00004E0828A4FF6DF731A408282704721B1A3
:103FB000828A42F01002828204E0828A4FF6EF7316
:103FC0001A4082827047828A4FF6FB731A408282BF
:103FD000828A0A438282704721B1828A42F00202B9
:103FE000828204E0828A4FF6FD731A408282704713
:103FF0001AB1838A0B43838202E0838A8B438382D4
:104000007047F0B50346002400260025002040F646
:104010006A17B94200D100BF1846C1F3421401F03B
:104020001F06012707FA06F5012C01D10C3004E028
:10403000022C01D1103000E014301AB107682F4370
:10404000076002E00768AF430760F0BD024600204A
:10405000B1F5007F00D100BF13880B400BB10120E8
:1040600000E00020704701F40072B2F5007F00D13B
:1040700000BFCA430280704770B502460024002387
:104080000025002040F66A16B14200D100BFC1F3FE
:10409000421501F01F03012606FA03F3012D13D187
:1040A0009689334017E000000010014000440040B2
:1040B00000480040004C0040005000400014014007
:1040C00000780040007C0040022D02D1168A334067
:1040D00001E0968A33400C12012606FA04F4168891
:1040E000344013B10CB1012000E0002070BD10B5C8
:1040F0000022002340F66A14A14200D100BF0A1238
:1041000001249440A3B2DC43048010BD7047704783
:104110007047754600F02CF8AE46050069465346D8
:1041200020F00700854618B020B5FDF733FCBDE848
:1041300020404FF000064FF000074FF000084FF00E
:10414000000B21F00701AC46ACE8C009ACE8C0099F
:10415000ACE8C009ACE8C0098D46704710B504460C
:10416000AFF300802046BDE81040FCF756B80000D1
:10417000004870473C02002001491820ABBEFEE712
:104180002600020070474FF04070E1EE100A7047C1
:10419000B041000800000020C8000000C401000871
:1041A00078420008C8000020D8070000E00100089D
:1041B00000000000000000000000000000000000FF
:1041C00000000000000000000000000000000000EF
:1041D00000000000000000000000000000000000DF
:1041E00000000000000000000000000000000000CF
:1041F00000000000000000000000000000000000BF
:1042000000000000000000000000000000000000AE
:10421000000000000000000000000000000000009E
:10422000000C024000100240000C0240000402405A
:1042300000100240000C0240004000020001000299
:1042400001000004008000040002000102000008D8
:1042500000000000007A030A0000000000000000D7
:10426000010203040607080900000000010203041C
:0842700001020304060708091E
:040000050800018965
:00000001FF
